:020000040000FA
:02000000F328E3
:08000800FD00FD0E030EFE00D9
:1000100083120B1D7628000009308100231C1C2848
:10002000220803191C28A00F1C28A10F1C28A203BA
:100030003C30A000F630A100A8186928A81D262889
:10004000A90B69280519A811A90A6928281C3228B2
:100050000519692828100630A9000D30AA00AB0147
:10006000AC01692805082806043903193F28A81699
:100070000630281E0230A900281105192815281A53
:100080004D28A90B6928031005190314AC0DAB0DFD
:100090002816A8120430A9006928A81A5728A90B05
:1000A0006928A8012814A8158030A90069282812F9
:1000B000AA0B6928AC0DAB0DAC0DAB0D03102B1FBB
:1000C0000314AC0C0310AB1A0314AC0C1F30AB05BB
:1000D000A81423187528A50B6E280611A40B7528E3
:1000E0002708A5002608A40006150B110B1C7F2865
:1000F000861E7D28231C86107E2886140B107E0EFB
:1001000083007D0E09002B081D3A031DBD282C0815
:100110007F39523A0319B7282C08AD060319BD28B8
:100120007F39093A03199828063A0319A328BD28EC
:1001300002308606BD28831692038312BD288316DB
:10014000920A8312BD282318AC280A30A200861414
:10015000231406110616BD2883163D309200831223
:100160002830950086102310A3100612BD28831690
:100170003D3092008312283095002C08AD00A81065
:1001800008003C30A000F630A1000034A801A9010D
:1001900028145530A700A5007030A600A400003434
:1001A000850186018316FF308500E13086008312C9
:1001B00007309F0000348B018C01920183168C0163
:1001C0000130810083128B168B158B17810100344F
:1001D00083163D30920083120C309500053092005A
:1001E0000C3097000034D020C120C620DB20E8204E
:1001F0002310A310061586100612A8188320231CAE
:10020000FD28A318FD282208031DFD2883163D3074
:0C021000920083120C309500A314FD280E
:02400E00423F2F
:00000001FF
