:020000040000FA
:02000000972B3C
:08000800FB00FB0E030EFC00DF
:10001000831203138B1C3128FF3081006F1F1628B9
:100020004808CA004908CB006F131B284808CC00B9
:100030004908CD006F17FE14C801C901D801D901C4
:10004000DA01DB01DC01D1015E08DD00FE1D2F2895
:100050005508D2005608D3005708D400FE118B1063
:100060003E280B1D74288117C90F3E28C80F3E2853
:100070008316FF308600F730850083125B0849063F
:10008000031D6B285C084806031D6B280408FD004F
:100090005D088400000886000510001805145D0343
:1000A0004724DD007D0884005408DA07031C5B2820
:1000B000D90A0319D80A5308D9070318D80A5908C6
:1000C000DB005808DC00DA1F6828DB0A0319DC0AA9
:1000D0005008D1007328510803197328D10B7328D5
:1000E0000030860005100B118C1CD7280508083A33
:1000F00008398511031D8515DF08031DDF03CF0FA8
:100100008928CE0F8928E30A7E153C30CF00F630CF
:10011000CE00EF18D628EF1D9328F00BD62805192E
:10012000EF11F00AD6286F1C9F280519D6286F10EA
:100130000630F0000D30F100F201F301D628050879
:100140006F0604390319AC28EF1606306F1E023013
:10015000F0006F1105196F156F1ABA28F00BD62829
:10016000031005190314F30DF20D6F16EF1204308E
:10017000F000D628EF1AC428F00BD628EF016F1430
:10018000EF158030F000D6286F12F10BD628F30D52
:10019000F20DF30DF20D0310721F0314F30C031094
:1001A000F21A0314F30C1F30F205EF148C107C0EBE
:1001B00083007B0E0900F9017A08F802031CE1288C
:1001C000E5280130F702031CE728F90ADC287A0841
:1001D000F80700344A084C06031D1B294B084D063E
:1001E000031D1B29F7014A08F8007830FA00DB20CC
:1001F0007908D5007808F7004B08F800DB2079086B
:10020000D6007808F700F801DB207908D700031042
:10021000560CD000F7000310F70C0310770CD00732
:10022000831601308600F43085008312FF1C851090
:10023000FF188514FE15FE10003478306302031C8D
:100240002329E300E20A3C306202031C2929E20070
:10025000E10A18306102031C2F29E100E40A203072
:10026000E7006508043A0319E703023A0319E703B4
:100270000F3A0319E703023A0319E703093A031D8A
:1002800048291D30E70066184829E6184829E70A7A
:1002900067086402031C4F29E400E40AE50A0D30F4
:1002A0006502031C5629E500E50AE60A6430660289
:1002B0000318E6017E11003482073E344134413494
:1002C00041343E34003421347F340134003421344D
:1002D000433445344934313442344134513469343F
:1002E00046340C34143424347F340434723451349E
:1002F000513451344E341E3429344934493406348F
:100300004034473448345034603436344934493406
:10031000493436343034493449344A343C34003476
:1003200036343634003400340034003400340034C1
:10033000003482073E344134413441343E34003489
:1003400040347F34423400344634493451346134CB
:10035000423431344B3445344134213410347F3409
:100360001234143418343934453445344534273480
:100370003034493449344A343C3403340534093484
:1003800071340134363449344934493436341E34F6
:1003900029344934493406340034083408340834E4
:1003A0000034003400340034003400341E306C0259
:1003B000031C783EFA006308FE397A060319ED162D
:1003C0000310620D7A06031DE7299F30ED046108D2
:1003D000F8000310F80DF80DF807F80D6208F700A3
:1003E0000630F702031CF629F80AF1297830F802E2
:1003F0000318F72978077A06031D08008130ED04F9
:10040000080006306C02031C0800031D092AEA01DB
:10041000EB0136306C02031808006B08031D192A23
:100420005E226A08031D192A6908031D192A37303C
:10043000E900EB0A06306B06031D212AEB01EA0AEC
:10044000080069088A100A145C21ED00E90A080016
:1004500042306C02031C0800031D302AEA01EB0144
:1004600072306C02031808006B0803195222EB0A61
:1004700006306B06031D3F2AEB01EA0A08006908F3
:100480008A100A149921ED00E90A0800F700F80122
:100490000A30F702031C4E2AF80A492AF707780E99
:1004A000770708006A088A018A148207742A842A56
:1004B0008E2A722A822A8E2A702A802A6A088A0143
:1004C0008A1482077E2A6E2A8E2A7C2A6C2A8E2A19
:1004D000792A0310630C752A6208752A6108752A47
:1004E0006408752A6508752A660846220F39E900EE
:1004F0008A2A0310630C852A6208852A6108852AE6
:100500006408852A6508852A66084622F039E900CC
:10051000E90E6908E90DE90DE90708003230E90044
:1005200008006C086806031D08006D170A30E8070C
:1005300008007208003A031DE62A73087F39073A5B
:100540000319E3010F3A0319052B083A0319082B85
:10055000203A0319E20A013A03190E2B313A031922
:100560001B2B013A0319142B103A0319212B053ABE
:100570000319272B063A03192C2B073A0319322BA0
:10058000063A0319E60A053A0319372B0C3A031900
:10059000012B043A0319FD2A7308F4060319E62A0D
:1005A0007F390C3A0319EB2A333A0319F12A323A0C
:1005B0000319F42A353A0319F72A1E3A0319FA2ABD
:1005C0001D3A0319402B073A03193E2B7308F40018
:1005D0007E15EF1008000230FF068510FF18851405
:1005E000E62A2030FE06E62A4030FE06E62A1030D3
:1005F000FE06E62A8030FE06E62A5E0A4F24DE006A
:10060000E62A5E034724DE00E62AE30AE30AE62A36
:100610000230E3020318E62A7830E3070130E202F1
:100620000318E62A3C30E2070130E1020318E62A0B
:100630001830E107E62AE10A183061060319E101E2
:10064000E62A670364060319E401E40AE62AE40BD8
:10065000E62A6703E400E62A0C3065060319E50183
:10066000E50AE62AE50BE62A0C30E500E62A013029
:10067000E6020318E62A6330E600E62A4323E62A68
:100680004030FF06E62AFF121030FF067F1EE62AE2
:100690008123FF160800D001D1013730DE00DD00D4
:1006A0003C30CF00F630CE00FE01FF010C30E100FF
:1006B000E201E3010130E400E5006630EF01F00102
:1006C0006F14080085018601831303138316FF301E
:1006D000850085118600831207309F0000348B014E
:1006E0008C010530920083168C0198308100F9301E
:1006F00092008C1483128B160B160B178B1781012B
:100700000800203084008001840A48300406031D5C
:100710008B2B58308407F0300406031D832B0317FE
:10072000A201A401031383169B0183120800622314
:100730004B2381236F237E16FE167E17FE1785142A
:10074000EF189922FF1EA92B5F08031DA92BDF03B9
:100750001024FE18EA207E1DA02B1D217F1B4324A0
:100760007F1AA02BEC01E8017E10203084007E105F
:10077000ED01FE1A01227E1B28227E1AD621FE1BC5
:1007800091226D088000EC0A78306C060319A02BCA
:10079000840A48300406031DB82B58308407B82B50
:1007A000A100A0012030A102031CA1017F30210281
:1007B0000318A1000310A10DA00D0310210DF700D7
:1007C000200DF8007708A1070318F80A7808A00799
:1007D0000530A0070630A200080020088A00210882
:1007E000FF24A10A0319A00AA2030800812383168B
:1007F0009B01E43084000E30F9001C149B0A1A0897
:1008000003178312D023ED238000040A4F248400B1
:10081000A20B032C03138316F90BFD2B8312080084
:10082000031783122208031D2F2C240803191F2CE1
:10083000A40B2D2C7F1F1F2C03134323080003132D
:1008400083161C149B0A9B131A0803199B01031798
:100850008312031D2E2C0F30A4002030D023ED2353
:10086000F700BF3084000008F8007708800078089F
:10087000F700040347248400E3300402031D332CF3
:1008800083120313080063080319432308001F3A67
:100890000319F030803A0319D8309F3A0800483ADB
:0E08A0000319E830B83A0319D030F03A0800D6
:0209FE0082076E
:100A00000034003400340034003400340034003446
:100A100079340034003400340034703400347034DD
:100A20000034003414347F3414347F3414340034EC
:100A300012342A347F342A34243400346234643447
:100A400008341334233400343634493455342234D2
:100A50000534003400345034603400340034003441
:100A600000341C3422344134003400340034413426
:100A700022341C3400340034143408343E34083436
:100A800014340034083408343E3408340834003454
:100A9000003405340634003400340034083408349B
:100AA0000834083408340034003403340334003488
:100AB0000034003402340434083410342034003458
:100AC0003E344134413441343E3400340034213426
:100AD0007F34013400340034213443344534493404
:100AE00031340034423441345134693446340034B2
:100AF0000C34143424347F340434003472345134CC
:100B0000513451344E3400341E342934493449347C
:100B100006340034403447344834503460340034B0
:100B20003634493449344934363400343034493465
:100B300049344A343C3400340034363436340034DA
:100B4000003400340034353436340034003400349A
:100B5000083414342234413400340034143414344E
:100B60001434143414340034003441342234143432
:100B700008340034203440344534483430340034B0
:100B8000263449344F3441343E3400343F34443405
:100B9000443444343F3400347F3449344934493494
:100BA000363400343E34413441344134223400344C
:100BB0007F344134413422341C3400347F3449348E
:100BC00049344934413400347F344834483448345B
:100BD000403400343E344134493449342F340034F5
:100BE0007F340834083408347F340034003441340E
:100BF0007F344134003400340234013441347E34D3
:100C0000403400347F340834143422344134003406
:100C10007F34013401340134013400347F34203412
:100C2000183420347F3400347F34103408340434D2
:100C30007F3400343E344134413441343E34003456
:100C40007F34483448344834303400343E344134FE
:100C5000453442343D3400347F3448344C344A34D3
:100C60003134003431344934493449344634003461
:100C7000403440347F344034403400347E340134D6
:100C8000013401347E3400347C34023401340234C3
:100C90007C3400347E340134063401347E34003434
:100CA0006334143408341434633400347034083436
:100CB00007340834703400344334453449345134F3
:100CC0006134003400347F34413441340034003422
:100CD000543434341F343434543400340034413404
:100CE00041347F3400340034103420344034203414
:100CF000103400340134013401340134013400343F
:100D000000344034203410340034003402341534BC
:100D1000153415340F3400347F3409341134113450
:100D20000E3400340E3411341134113402340034D2
:100D30000E341134113409347F3400340E34153438
:100D4000153415340C34003408343F3448344034FE
:100D50002034003418342534253425343E3400340E
:100D60007F340834103410340F340034003411341C
:100D70005F340134003400340234013411345E3401
:100D8000003400347F3404340A3411340034003425
:100D9000003441347F340134003400341F341034C3
:100DA0000C3410340F3400341F3408341034103431
:100DB0000F3400340E341134113411340E34003435
:100DC0003F34283428342834103400341034283484
:100DD000283418343F3400341F34083410341034AD
:100DE0000834003409341534153415340234003411
:100DF00010347E3411340134023400341E34013492
:100E0000013402341F3400341C34023401340234FF
:100E10001C3400341E340134063401341E340034D2
:100E200011340A3404340A341134003418340534CB
:100E3000053405341E340034113413341534193498
:100E40001134003400340834363441340034003472
:100E5000003400347F340034003400340034413432
:100E600036340834003400340434043415340E3479
:100E70000434003404340E3415340434043400349F
:100E800014343E3455344134223400343034783410
:100E90007C347C343E341F343E347C347C347834AF
:100EA0003034003400341C343E3477345B347B34CB
:100EB0005B3477343E341C34003400340034003466
:100EC000023400340034003400340034023400347E
:100ED0000034003400340034023400340034003470
:100EE0000034003402340034003400340034003460
:100EF000023400340034003400340034023400344E
:100F0000003400340034003402340034003400343F
:100F1000003400340234003400340034003400342F
:100F2000023400340034003400340034023400341D
:100F3000003400340034003402340034003400340F
:100F400000340034023400340034003400340034FF
:100F500002340034003400340034003402340034ED
:100F600000340034003400340234003400340034DF
:100F700000340034023400340034003400340034CF
:100F800002340034003400340034003402340034BD
:100F900000340034003400340234003400340034AF
:100FA000003400340234003400340034003400349F
:100FB000023400340034003400340034023400348D
:100FC000003400340034003402340034003400347F
:100FD000003400340234003400340034003400346F
:100FE000023400340034003400340034043400345B
:100FF000003400340034003402340034003400344F
:02400E00423F2F
:104200002000C0002000C1002000C2002000C30028
:104210002000C40020006400200020002000830053
:1042200084003C003D003D003D00200020002000B7
:10423000200020002000200020002000200020007E
:08424000200020002000000016
:00000001FF
