:020000040800F2
:10000000A0230020311500082D1500082D1500082B
:100010002D1500082D1500082D1500080000000002
:100020000000000000000000000000002D15000886
:100030002D150008000000002D150008C518000847
:100040002D1500082D1500082D1500082D15000888
:100050002D1500086D1D00082D1500082D15000830
:100060002D1500082D1500082D1500082D15000868
:100070002D1500082D1500082D1500082D15000858
:100080002D1500082D1500082D1500082D15000848
:100090002D1500082D1500082D1500082D15000838
:1000A0002D150008451F00082D1500082D15000806
:1000B0002D150008991D0008A51E00082D15000823
:1000C0002D1500082D1500082D1500082D15000808
:1000D0002D1500082D1500082D1500082D150008F8
:1000E0002D1500082D1500082D1500080000000032
:1000F0000000000000000000000000000000000000
:1001000000000000000000005FF808F1034B9A882F
:1001100092B242F010029A80704700BF002800405F
:10012000034A938823F010031B041B0C9380704731
:1001300000280040034B9A8B92B2188B42EA004091
:10014000704700BF0028004010B50446FFF7DEFFEF
:10015000220C034B1A83A4B29C83FFF7E1FF10BD6E
:100160000028004010B50446FFF7D0FFC4F3034257
:10017000034B1A81A4B29C81FFF7D2FF10BD00BFD0
:1001800000280040064A938823F008031B041B0C38
:100190009380938803F008039BB2002BF9D070473B
:1001A0000028004003783BB103460020013013F8DB
:1001B000012F002AFAD1704700207047184B98424F
:1001C00019D8184B984218D8174B984218D8174B83
:1001D000984217D8164B984216D842F20F7398429D
:1001E00014D8B0F57A7F14D2632814D8092815D909
:1001F0004FF07E5070470F4870474FF08240704775
:100200000D4870470D4870470D4870474FF08140CA
:1002100070470C4870474FF080407047002070478F
:10022000FFC99A3BFFE0F5057F9698003F420F001B
:100230009F860100000010410000E0400000C04027
:100240000000A040000040402DE9F04180460F46EC
:100250000846002103F09AFFB8B1002600240F4D94
:10026000404603F013FA02460B462046294603F0A7
:1002700061FA04460D460136304603F077FD3946F3
:1002800003F066FF0028EBD101E00024034D204677
:10029000294603F061FCBDE8F08100BF0000F03F9B
:1002A0002DE9F04F87B0029000910392002103F0F6
:1002B0004FFF002878D0029A02F10040029003F02C
:1002C0006FFF0646FFF77AFF03F06AFF80462D2393
:1002D000009A13700123019308F10203012B33DD0F
:1002E000019F47440137009A174408F1010B04931A
:1002F00001240025DFF8D0A0DFF8D090CDF81480DD
:100300009846204603F032FD01465046FFF79CFF19
:1003100003F046FF96FBF0F300FB13635D1B89FBC4
:100320000023C017C0EBA30095FBF0F505F13003E7
:1003300007F8013D5C4505D001344445E1D1DDF8C5
:10034000148001E0DDF8148008F10104019D009B98
:100350002B442E221A55304603F008FD0146029820
:1003600003F04EFC039ECEB1174FDDF80090019BC9
:100370009944394603F04EFD824603F011FF0134E3
:1003800000F1300309F8043003F0F0FC0146504658
:1003900003F036FCC8EB0403B342EADD009A1544CF
:1003A0002C44002363700BE0029803F0F9FE06462C
:1003B000FFF704FF03F0F4FE8046002301938BE770
:1003C00007B0BDE8F08F00BF000020416766666699
:1003D00010B50446FFF7E6FE431E002B08DD0022A1
:1003E000A15CE05CA054E1540132013B9A42F7DB8E
:1003F00010BD00BFF8B580EAE072A2EBE072002405
:100400000E4F651C87FB0236D317C3EBA60303EB25
:100410008306A2EB460230320A551A46002B01DD54
:100420002C46EEE72B46002802DAA51C2D22CA54E2
:1004300000234B550846FFF7CBFFF8BD676666669D
:1004400010B403783BB103460022013213F8014F88
:10045000002CFAD100E0002200231044CA5CC254F0
:100460000133002AFAD15DF8044B704730B4048C94
:1004700024F001042404240C0484048BA4B2058C0D
:10048000ADB224F0F304224342EA03139CB2124BB0
:10049000984212D003F5006398420ED0B0F1804F1D
:1004A0000BD0A3F59833984207D003F580639842A8
:1004B00003D003F58063984205D125F0020545F08D
:1004C0000105294304E025F00A0545F0010529430B
:1004D0000483018430BC7047002C014030B4048C8C
:1004E00024F010042404240C0484048B058CADB285
:1004F00024F440742405240D44EA022242EA033322
:100500009BB2134A904212D002F5006290420ED084
:10051000B0F1804F0BD0A2F59832904207D002F58F
:100520008062904203D002F58062904207D125F0AC
:10053000200545F0100545EA011189B204E025F0D7
:10054000A00545F0100529430383018430BC7047A2
:10055000002C014003889BB2244A904212D002F53D
:10056000006290420ED0B0F1804F0BD0A2F59832CD
:10057000904207D002F58062904203D002F580627B
:10058000904203D123F070034A881343184A9042E3
:1005900025D002F58062904221D023F440739BB2B3
:1005A000CA88134303808B8883850B8803850F4B90
:1005B00098420FD003F5006398420BD003F54063D7
:1005C000984207D003F58063984203D003F5806317
:1005D000984201D10B7A03860123838270470380FE
:1005E0008B8883850B880385F6E700BF002C0140CC
:1005F0000010004030B4038C23F480731B041B0CE8
:100600000384038C8488A4B2828B22F073021204C8
:10061000120C0D882A4323F400731B041B0C0D8954
:1006200043EA05234D8843EA05239BB2114DA842B6
:1006300003D005F50065A84215D123F400639BB2F1
:100640004D8943EA05234FF6FF351D408B8845EA67
:1006500003239BB224F440548D8944EA0514CD89C8
:1006600044EA0514A4B284808283CA888287038402
:1006700030BC7047002C014029B103889BB243F085
:10068000010303807047038823F001031B041B0C44
:100690000380704722B183899BB2194381817047DF
:1006A00083899BB223EA010181817047038923F08A
:1006B00070031B041B0C194301817047838B23F0CB
:1006C00008031B041B0C194381837047038923F023
:1006D00007031B041B0C038103899BB2194301818F
:1006E000704700BF038B23F00C031B041B0C038318
:1006F000038B9BB219430183704700BF038B23F424
:1007000040631B041B0C0383038B9BB243EA012150
:100710008BB20383704700BF838B23F00C031B0451
:100720001B0C8383838B9BB219438183704700BF6B
:10073000838B23F440631B041B0C8383838B9BB24A
:1007400043EA01218BB28383704700BF70B5044632
:100750000D460B884BB94988AA882B89FFF786FE7E
:100760002046E988FFF7BEFF70BD042B09D14988F8
:10077000AA882B89FFF7B2FE2046E988FFF7BEFF63
:1007800070BD082B3CD14E888A880989038C23F4DC
:1007900080731B041B0C0384838B9BB2008C80B280
:1007A00023F0F30343EA01139BB21343354A944207
:1007B00012D002F5006294420ED0B4F1804F0BD0FB
:1007C000A2F59832944207D002F58062944203D099
:1007D00002F58062944207D120F4007040EA0626B8
:1007E000B6B246F4807604E020F4206046F48076C9
:1007F0000643A38326842046E988FFF78DFF70BD5A
:100800004988AE882889238C23F480531B041B0C51
:100810002384A38B228C92B223F440731B051B0DFF
:1008200043EA062343EA00339BB21648844212D0BF
:1008300000F5006084420ED0B4F1804F0BD0A0F5DB
:100840009830844207D000F58060844203D000F5E0
:100850008060844207D122F4005242EA013292B20F
:1008600042F4805206E022F400725204520C41F429
:1008700080510A43A38322842046E988FFF758FF6A
:1008800070BD00BF002C0140008F80B2704700BFD8
:10089000038A828992B2194204D011420CBF00200F
:1008A0000120704700207047C94389B20182704718
:1008B0002DE9F04385B007460E4691463A4B1B683A
:1008C0005A683A4B9A4207D0394B1B783BB93C23C4
:1008D00003704FF0010804E04FF0000801E04FF012
:1008E0000008444603E0631C725D3A559CB2C8EBB5
:1008F0000405EDB23046FFF755FC8542F3DB214697
:10090000294B1B681A68294B9A4206D0284B1B7842
:100910001BB90134A4B23E237B5400233B55244B26
:100920001B78002B3CD03D233B550134A4B200235F
:100930003B551F4B1B785BB31D4B5B78DBB2942B95
:1009400026D14FF6E75399450BD8484603F00AFAEB
:100950004FF0745103F05EFA01A90222FFF7A0FCE8
:100960000DE0C9F5803003F001FA00F100404FF0CE
:10097000745103F04FFA01A90222FFF791FC3846A7
:1009800001A9FFF75DFD38460A49FFF759FD07E069
:10099000484601A9FFF72EFD384601A9FFF750FD93
:1009A00005B0BDE8F08300BF500500200000002026
:1009B000C4040020EC4100082DE9F04F89B09E4BA3
:1009C0005B7813F0800F00F0F8819B4B5B889BB243
:1009D000002B00F09481994B1B78032B00F21484B8
:1009E000DFE813F004006F00D7003A01924C6388EF
:1009F0009BB2934EF179934DA5FB03239B09C3F161
:100A00001E030A20C1F34201FF22DBB201F040FDC8
:100A10008D4B1968D1F808B0271D384611318B4B22
:100A20001A88FFF745FF3846FFF7BCFB618889B29B
:100A3000DFF81C82F37900EBD0704210C2EB423039
:100A400002EBC002C73292B20092A5FB01029209EA
:100A5000C2F1140292B201924FF0010ACDF808A03F
:100A60004FF00209CDF80C900B2039464246C3F3F3
:100A7000420301F099FC0BF1110B5846FFF792FB72
:100A8000628892B2F37900EBD07040FA0AF4C4EBBA
:100A9000443104EBC101C73189B20091A5FB0212B8
:100AA0009209C2F10A0292B20192CDF808A0CDF8E3
:100AB0000C900C2059464246C3F3420301F074FCEB
:100AC000A2E35D4C271DDFF880B1DBF8001038464B
:100AD00011315E4B1A88FFF7EBFE3846FFF762FBD9
:100AE000618889B2DFF86881554EF37900EBD070E8
:100AF0004210C2EB423002EBC002C53292B2009209
:100B0000504DA5FB01029209143201924FF0010AE7
:100B1000CDF808A04FF00209CDF80C900C20394612
:100B20004246C3F3420301F03FFCDBF800309B6810
:100B300003F1110B5846FFF735FB628892B2F37947
:100B400000EBD07040FA0AF7C7EB473107EBC10161
:100B5000C73189B20091A5FB021292090A320192B3
:100B6000CDF808A0CDF80C900A2059464246C3F3B0
:100B7000420301F019FC63889BB2F179A5FB0323C2
:100B80000B20C1F34201FF22C3F3871301F080FC65
:100B90003AE3294D2C1D2C4E3168204611312B4B48
:100BA0001A88FFF785FE2046FFF7FCFA698889B2AC
:100BB000274DDFF88C9099F80730264AA2FB017286
:100BC0001209C73200EBD0704110C1EB413001EB8C
:100BD000C0010A4492B20092142201924FF001081F
:100BE000CDF80880022703970A2021462A46C3F33E
:100BF000420301F0D9FB33689E6811363046FFF797
:100C0000D1FA99F8073000EBD07040FA08F4C4EB41
:100C1000443204EBC202C73292B200920A2201921D
:100C2000CDF8088003970B2031462A46C3F34203D0
:100C300001F0BAFBE8E200BFC40400205405002024
:100C400038050020CDCCCCCC50050020700500200C
:100C5000FC4100081F85EB517A4D2C1D7A4E3168FE
:100C600020461131794B1A88FFF722FE2046FFF704
:100C700099FA698889B2764DDFF8E09199F80730E2
:100C8000744AA2FB01721209C2F1C70200EBD070D4
:100C90004110C1EB413001EBC0010A4492B2009215
:100CA000142201924FF00108CDF808800227039723
:100CB0000A2021462A46C3F3420301F075FB33683C
:100CC0009E6811363046FFF76DFA99F8073000EB51
:100CD000D07040FA08F4C4EB443204EBC202C732CD
:100CE00092B200920A220192CDF8088003970B205D
:100CF00031462A46C3F3420301F056FB84E2524CCC
:100D0000216855481131514B1A88FFF7D1FD2368EE
:100D10001B7C03F0E002E02A09D14A4A127832B182
:100D200013F0100F03D1494B93F8009004E04B4BA4
:100D300093F80790C9F34209474E3046FFF732FA5D
:100D4000434D00EBD0704410C4EB443304EBC304B8
:100D5000C734A4B20094142201924FF00108CDF8D8
:100D60000880022703970A2031462A464B4601F0A5
:100D70001BFB354B1B689E6811363046FFF712FA95
:100D8000364BDB7900EBD07040FA08F4C4EB443208
:100D900004EBC204C734A4B200940A220192CDF835
:100DA000088003970B2031462A46C3F3420301F023
:100DB000FBFA0C2001F094FB26E2224B5B78DBB2BD
:100DC000202B53D001D83BB11EE2402B00F0E18034
:100DD000602B00F09F8117E2FFF7ACF9204C214611
:100DE00000F0D4FBDFF880904846214600F04EFC2E
:100DF0001C4D2846214600F085FC154CDFF85C8030
:100E000098F80730AE22009214270197012202922F
:100E1000022603960D2049462246C3F3420301F001
:100E2000C3FAB8F8063042220092019700220292DB
:100E300003960E2029462246C3F3821301F0B4FA2A
:100E4000E2E100BFC404002050050020700500202E
:100E5000FC4100081F85EB51C80400203805002024
:100E6000640500204405002058050020FFF762F9C2
:100E7000B54C214600F08AFB2179B44BA3FB01025B
:100E8000D20802EB4202A1EB8202D2B202EB820252
:100E90006179A3FB01739B0803EB420202EB820220
:100EA000AB4B83FB0202C2F1C802AA4B83FB0213C5
:100EB000D117C1EBA313C82101FB1323D9B2A64A52
:100EC000D279C2F30212022986BF033989B2C53131
:100ED0000F2000900191DBB203339E4D85FB03711F
:100EE0008911C82404FB11339BB2029316200521FB
:100EF000002301F0AFFB944B5A7902EB82025200BF
:100F0000934B83FB0202A21A85FB0213D117C1EB9C
:100F1000A31304FB1323904AD279C2F3021213F0F5
:100F2000FF011ABF01F1FF3189B2C72116200090DD
:100F30000191DBB20133874D85FB03718911C82410
:100F400004FB11339BB2029317200521002301F00B
:100F500081FB814BDA791E2300937B4B9B7904FB49
:100F600003F37E4981FB03010B445B11E31A85FB0C
:100F70000315D917C1EBA51504FB15339BB20193DB
:100F80000023029318200221C2F3021201F062FB37
:100F90003AE1FFF7CFF86C4C214600F0F7FA2179DF
:100FA0006A4BA3FB0172D20802EB4202A1EB820260
:100FB000D2B202EB82026179A3FB01039B0803EB2F
:100FC000420202EB8202624B83FB0212C2F1C802B0
:100FD000604B83FB0273D117C1EBA313C82101FB44
:100FE0001323D9B25C4AD279C2F30212022986BF16
:100FF000033989B2C5310F2000900191DBB2033370
:10100000544D85FB03018911C82404FB11339BB2A5
:10101000029316200521002301F01CFB4A4B5A794C
:1010200002EB820252004A4B83FB0212A21A85FB9A
:101030000273D117C1EBA31304FB1323464AD279E1
:10104000C2F3021213F0FF011ABF01F1FF3189B29E
:10105000C721162000900191DBB201333D4F87FB81
:1010600003018911C82505FB11339BB20293172098
:101070000521002301F0EEFA374EF2791E2300938A
:10108000314CA37905FB03F3344981FB03010B4485
:101090005B11EB1A87FB0317D917C1EBA71705FBE9
:1010A00017339BB201930025029518200221C2F349
:1010B00002122B4601F0CEFADFF8B4A050462146CA
:1010C00000F0E4FADFF8AC804046214600F01AFB5D
:1010D000234FF379AE2200920E2401940122029252
:1010E0004FF00209CDF80C900D2051463A46C3F35B
:1010F000420301F059F9F3884222009201940295CB
:10110000CDF80C90204641463A46C3F3821301F0D5
:101110004BF979E0134B5A6A13498969322000FB75
:1011200002F292FBF1F25B6A002B25DD831A0F4F6E
:1011300087FB0307DB43DB0FC3EB271707FB02F734
:10114000383FFFB224E000BF64050020ABAAAAAA82
:10115000565555551F85EB513805002089888888DC
:10116000FC410008C404002000000020B5814E1B93
:10117000580500204405002002F13203244981FB78
:101180000371DB43DB0FC3EB211303FB02F2D7B286
:10119000204EF2791C250095019700240294192015
:1011A0000221C2F30212234601F054FAF2790094AC
:1011B000019702941A200621C2F302122B4601F075
:1011C00049FA154D05F8284F28461449FFF738F914
:1011D000134B9B6947F2305090FBF3F005A9FFF7E2
:1011E00009F9284605A9FFF72BF9F3794122009266
:1011F000142201920294022203920F202946094AE6
:10120000C3F3420301F0D0F809B0BDE8F08F00BF8E
:10121000B5814E1B38050020C4040020F0410008B1
:1012200000000020FC4100082DE9F04385B007468E
:101230000022554B5A80FFF7BFFB0A24204601F0DD
:1012400021FA0134E4B21B2CF8D10A24DFF85491BE
:10125000DFF854814D4EF379002200921C22019256
:101260000122029202250395204649464246C3F3D5
:10127000420301F099F8E0B201F032F90134A4B26E
:10128000102CE8D1404B5A78D20983F84620C7F396
:10129000C0021A7007F0F707002A0CBF4FF448721B
:1012A00000225A805F703A4AD1690A7C5B78DBB2CF
:1012B0009A420BD0364D05F11C03A435324C53F83D
:1012C000041F0A7C6078C0B282421CD1314B1B687B
:1012D00058681C689B681B7C934203D100222E4BEC
:1012E0001A700DE0037C934203D102222A4B1A703C
:1012F00006E0237C93420CBF03220122264B1A7086
:10130000244B196001E0AB42D9D11F4B5B78DBB2B3
:10131000202B04D01C4B5B78DBB2402B2DD100245A
:101320002546DFF868801D4F1D4EE9B201F10A0025
:1013300098F80820A7FB01E35B0803EB4303CB1AF3
:1013400003F0FF03002B86FB04314FEAE473C3EB89
:1013500061039BB24FF01F01009101930293C0B251
:101360004FF0020102F007020CBF16231A2301F00E
:1013700071F90135C8340C2DD7D10022044B9A6184
:1013800005B0BDE8F08300BFC4040020380500208C
:10139000000000205005002054050020ABAAAAAA96
:1013A000ABAAAA2AF8410008FC410008F0B585B0B4
:1013B0000A240D4F0D4E642500950A230193002346
:1013C00002930220039020463946324600F0ECFF9B
:1013D000E0B201F085F80134A4B20D2CECD100206C
:1013E000FFF722FF05B0F0BDF8410008FC410008FE
:1013F00008B502460B4B93F8463043B10A4B1880B0
:101400000A4B19680A481131FFF752FA08BD054B1B
:101410005B78DBB2602B04D10021024B5962054B93
:10142000986108BDC404002070050020500500200C
:10143000C804002000000020012820D010B102289C
:1014400035D07047254B1A7861F30102880860F3A4
:1014500082021A70C8081A8860F3C8021A80480A03
:10146000120A60F346025A70C80B1A6860F3D4324D
:101470001A60490D120C61F34E125A807047174BD7
:101480001A7961F305021A7188099A8860F3881243
:101490009A80480A120A60F34302080B60F30612AE
:1014A0005A71C90B5A6861F3D5325A6070470B4BB9
:1014B000DA8861F38812DA80C808120A60F34302FE
:1014C000880960F30612DA71480A1A7A60F3020298
:1014D000090B61F3C5021A72704700BF380500207E
:1014E0000F4B1A6842F001021A6059680D4A0A400F
:1014F0005A601A6822F0847222F480321A601A68E4
:1015000022F480221A605A6822F4FE025A604FF4D4
:101510001F029A604FF00062034B9A60704700BF51
:10152000001002400000FFF800ED00E0FEE700BF01
:1015300010B5104B104A9A420DD2131D0F4CE41AED
:1015400024F003040434002310460D495A581A505D
:101550000433A342FAD10B480B494FF000028842F2
:10156000B8BF40F8042BFFF6FAAFFFF7B9FF00F061
:1015700085FD10BDC404002000000020C704002029
:1015800004480008C40400209C1F0020F0B4344A22
:10159000A2FB0032334C04EB124296000336324B6E
:1015A000A3FB0646F60BF3B2304C04FB03F3A2EBAD
:1015B000A3039D0003352E4AA2FB0575ED09EAB28F
:1015C00040F2B55404FB02F4A3EBA40404EB84033F
:1015D0000233284AA2FB03C3C3F3C713013403EB4E
:1015E000C30202EB02120232234F87FB02C2A4EBBA
:1015F0006204CC70214AA2FB0342D2080333A2EB5F
:10160000820403EB84038B70F3B203EB830303EBDD
:1016100083039B00A3F59653EDB21D442A440A8030
:10162000174BA3FB0073DB0A164AA2FB03C2120985
:1016300002EB4202A3EBC2030B71134AA2FB00436D
:101640005B09A2FB03725209C2EB0212A3EB8202F6
:101650004A71C3EB0313A0EB83008871F0BC7047A1
:1016600007452EC2F3E62500BD066B39B13A0200EC
:1016700073B06D16D7802BD667666666CDCCCCCCA2
:10168000C5B3A291ABAAAAAA8988888830B43A23A4
:10169000437183700A791A4BA3FB0242D20830329D
:1016A00002700A79A3FB0254E40804EB8404A2EB61
:1016B0004402303242704A79A3FB0242D2083032EF
:1016C000C2704A79A3FB0254E40804EB8404A2EB41
:1016D0004402303202718A79A3FB0242D2083032CE
:1016E00082718A79A3FB0253DB0803EB8303A2EB2D
:1016F00043023032C2710023037230BC704700BF16
:10170000CDCCCCCC30B42F2343718370CA78254B19
:10171000A3FB0242D20830320270CA78A3FB025403
:10172000E40804EB8404A2EB4402303242708A786D
:10173000A3FB0242D2083032C2708A78A3FB025463
:10174000E40804EB8404A2EB4402303202710A88FC
:10175000154CA4FB02529209303282710D88A4FB11
:101760000514A4094FF47A7202FB1454A4B20F4971
:10177000A1FB0421490901F13002C271642202FB7C
:10178000114292B2A3FB0243DB0803F13001017264
:1017900003EB8303A2EB43023032427200238372D5
:1017A00030BC7047CDCCCCCCD34D62101F85EB51F3
:1017B0002DE9F001CB7803F00F0513F0100F1CBFDB
:1017C0008B781D430B78F3B10768002301264FF097
:1017D0000F0C06FA03F20C88144094420FD19A00C1
:1017E0000CFA02F827EA080705FA02F21743CA784A
:1017F000282A01D1446102E0482A08BF046101336C
:10180000082BE6D107600B88FF2B20D947680023FF
:1018100001264FF00F0C03F1080206FA02F20C88C1
:10182000144094420FD19A000CFA02F827EA0807F4
:1018300005FA02F21743CA78282A08BF4461CA7819
:10184000482A08BF04610133082BE4D14760BDE892
:10185000F001704730B40028194BB4BFDB695B68F6
:1018600084B200F44012B2F5401F07D123F0706338
:10187000134A556825F07065556014E010F4801F18
:1018800009D0C0F30342032505FA02F223EA02035A
:1018900043F0706307E0420D120104FA02F223EAFA
:1018A000020343F0706319B1420D120194402343C7
:1018B0000028034AB4BFD361536030BC704700BFF7
:1018C00000000140234B1B889BB223B1214B1A8897
:1018D000013A92B21A80204B1B889BB223B11E4B57
:1018E0001A88013A92B21A801C4B1B889BB223B112
:1018F0001A4B1A88013A92B21A80194B1B6823B30B
:10190000164B9B787BB1174A136801331360144A56
:10191000126893421CDB124B1A68124B1A600022A9
:101920000E4B9A7070470F4A1368013B13600C4AC4
:101930001268524293420BDC094B1A685242094B1F
:101940001A600122054B9A7070470022054B1A60FD
:10195000704700BF72050020C60400200C0500205F
:1019600018000020E80400202DE9F04F8DB04FF45E
:10197000E06001F057FC00F099FB002000F0B6FB9E
:10198000012000F0D1FB102001F0D6F8022001F078
:10199000C9F8002000F0F0FB002000F001FC00205E
:1019A00000F0F4FB00204FF4601100F0C3FB0120B5
:1019B00000F0CAFB3924204600F0D2FC0028FAD0FF
:1019C000022000F0C7FB00F0CFFB0828FBD1D54B6D
:1019D0004FF6FF125A60F021D34A82F823100025F7
:1019E0009D6007221A60D1480121FFF733FF4FF0B5
:1019F0008050012100F084FCCD4B1A6842F48072C3
:101A00001A60012000F0A6FC284600F0A3FC02208A
:101A1000012100F0CFFB05238DF800304FF00A0ABA
:101A20008DF801A04FF008088DF8028001248DF890
:101A30000340684601F000FCDFF808932023C9F852
:101A40000030204600F0C4FB41F20D00214600F0BA
:101A500049FC2046214600F037FCADF82C408DF8BB
:101A60002F5003278DF82E70DFF8DCB258460BA9F3
:101A7000FFF79EFE0426ADF82C604FF018038DF89A
:101A80002F308DF82E4058460BA9FFF791FE5023BA
:101A9000ADF82C304FF010038DF82F308DF82E70EC
:101AA00058460BA9FFF784FEA023ADF82C304FF069
:101AB00018038DF82F308DF82E7058460BA9FFF7BC
:101AC00077FE4FF40043ADF82C304FF010038DF843
:101AD0002F308DF82E7097480BA9FFF769FE4FF055
:101AE0002003ADF82C308DF82F608DF82E700BF59B
:101AF000806B58460BA9FFF75BFE4FF42073ADF8DF
:101B00002C308DF82F608DF82E7058460BA9FFF7FA
:101B10004FFE4023ADF82C304FF010038DF82F30DE
:101B20008DF82E7058460BA9FFF742FE4FF4006067
:101B3000214600F0D7FB2046214600F0E1FB0220C1
:101B4000214600F0DDFB3046214600F0D9FBADF820
:101B50002070ADF8225042F21073ADF82430ADF889
:101B600026508DF82850744808A9FEF7F3FC7248F7
:101B700021462246FEF78EFD19238DF800308DF8A0
:101B800001A08DF802808DF80340684601F054FBF7
:101B90004FF00073C9F80030ADF82250ADF8205076
:101BA0004FF47A73ADF82430ADF826508DF82850F4
:101BB0004FF0804008A9FEF7CDFC4FF0600BADF868
:101BC00010B0ADF81240ADF818504FF47A73ADF87C
:101BD00016304FF0804004A9FEF70CFD4FF0804016
:101BE0004146FEF76BFDADF82250ADF820504FF4A2
:101BF000FA53ADF82430ADF826508DF82850DFF8B0
:101C00004C81404608A9FEF7A5FCADF804604FF0F2
:101C10000203ADF80630ADF80840ADF80A50ADF853
:101C20000C7040460DEB0601FEF790FD404659460C
:101C3000FEF73CFD40463146FEF748FD3F48214651
:101C4000FFF708FE404631462246FEF723FD1D23DE
:101C50008DF800308DF801508DF802508DF803405A
:101C6000684601F0E9FA4FF00053C9F80030ADF8CA
:101C7000225040F2E733ADF820304FF6E853ADF88C
:101C80002430ADF826508DF828502D4F384608A93D
:101C9000FEF760FCADF804604FF00203ADF80630CB
:101CA000ADF80840ADF80A50ADF80C5038460DEBD1
:101CB0000601FEF74BFD38465946FEF7F7FC38465D
:101CC0003146FEF703FD384631462246FEF7E2FC78
:101CD000384621462246FEF7DDFC1E238DF80030F3
:101CE0008DF801A08DF802A08DF80340684601F040
:101CF000A3FA4FF08045C9F800500F482146FEF77F
:101D0000BBFC28462146FEF7B7FC40462146FEF7BD
:101D1000B3FC38462146FEF7AFFC45F2555001F0C2
:101D20002FFB15E010E000E000ED00E000043000C3
:101D30000070004000100140002C014000081A0013
:101D40000008004000E100E00008014000040040FD
:101D5000204601F01BFB4FF4FA7001F01DFB01F06F
:101D600021FB01F027FB0DB0BDE8F08F08B5022084
:101D700000F00AFB78B1022000F010FB4FF48070F5
:101D800000F03AFA012000F03FFA47F6FF70FEF744
:101D9000E9F9FEF7F7F908BD08B540480421FEF758
:101DA00077FD00286FD03D480421FEF77DFD3C4BB8
:101DB000DB781BB1013B3A4AD37008BD3748FEF7C8
:101DC00063FDA0F63E0240F2DE339A4264D8344B03
:101DD0005A685B68C31A462B04D9314B0722DA7064
:101DE000586008BD2E4B5860A0F6CD33442B03D865
:101DF000012001F08FF846E0A0F64B33442B03D8C6
:101E0000022001F087F83EE0A0F6C9234E2B03D84C
:101E1000032001F07FF836E0A0F651233F2B03D8D2
:101E2000042001F077F82EE0A0F6ED13302B03D854
:101E3000052001F06FF826E0A0F693132B2B03D8B2
:101E4000062001F067F81EE0A0F625133A2B03D810
:101E5000072001F05FF816E0A0F6D503352B03D874
:101E6000082001F057F80EE0A0F68F03302B03D8BE
:101E7000092001F04FF806E0A0F644002B2802D814
:101E80000A2001F047F805480121FEF701FD18B1CD
:101E900002480121FEF708FD08BD00BF0004004014
:101EA0000C05002010B524480421FEF7F1FC0128A0
:101EB0002BD1214C20460421FEF7F6FC2046FEF7EC
:101EC000E3FCA0F5487243F65F339A4209D9002239
:101ED0001A4B1A721A4B4FF47A529A8501229A823F
:101EE00010BD164BDA68024402EB8202C2F3CF0245
:101EF00013498A8501228A82D860042119745A7490
:101F00001A724FF47A721A8010BD0B480121FEF745
:101F1000BFFC80B108480121FEF7C6FC074B1B88B7
:101F20009BB243B90022054B1A72054B4FF47A520B
:101F30009A8501229A8210BD000800400C050020FD
:101F4000002C014010B50D480121FEF7A1FC98B10D
:101F50000B4C2046002101F055F920460C2101F0E0
:101F60005FF92046012101F04DF904480121FEF7F7
:101F70009BFC0122034B9A7410BD00BF002C014052
:101F8000300002400C0500202DE9F041364B9B7CCF
:101F9000DBB2012B64D10022334B9A74334A13898C
:101FA00003F080039BB2002BF9D103F1804303F5CA
:101FB000843340221A615A612B4A137C0133DBB20D
:101FC0001374C72B02D90022274B1A7400F012FE9B
:101FD000254B1B7A13F0FF0F36D0234B187C00F0F3
:101FE0006DFF00242546224FDFF87C8041F2185611
:101FF000E9B2E35D1BB198F8100000F097FA0135E3
:10200000D834B442F4D100241A4D174EE1B2C4EBD7
:10201000C4035B5D13B1307C00F05CFB01341E2C0B
:10202000F4D1114BDB7C0133DBB2312B04D80E4AE7
:10203000D3740120BDE8F08100220B4BDA74FEF767
:10204000BBFC0120BDE8F0810B4B1A7842F0400246
:102050001A70DA7A42F00202DA720020BDE8F081EA
:102060000020BDE8F08100BF0C05002000300140D9
:1020700048060020740500202005002038B5FFF731
:1020800073FC00F065FD00F0D9FFFFF78FF9064CF7
:102090000025FFF779FF01F085F9637CDBB2012BA6
:1020A00008BF6574F5E700BF0C0500200D4B1A68EA
:1020B00042F001021A6059680B4A0A405A601A68D5
:1020C00022F0847222F480321A601A6822F480228C
:1020D0001A605A6822F4FE025A604FF41F029A6096
:1020E000704700BF001002400000FFF80D4B1A6857
:1020F00022F480321A601A6822F480221A60B0F545
:10210000803F03D0B0F5802F06D07047054B1A688A
:1021100042F480321A607047024B1A6842F4A022DF
:102120001A60704700100240014B1860704700BFF2
:1021300000004242034B5A6822F47C1211430843C8
:102140005860704700100240014B1860704700BF94
:1021500060004242034B5A6822F003021043586069
:10216000704700BF00100240024B586800F00C009E
:10217000704700BF00100240034B5A6822F0F00283
:1021800010435860704700BF00100240034B5A686C
:1021900022F4E06210435860704700BF0010024014
:1021A000034B5A6822F4605242EAC00058607047FC
:1021B0000010024021B1054B1A7810431870704787
:1021C000024B1A7822EA000018707047091002408A
:1021D000084B00221A701A70012802D0042804D07B
:1021E00070470122034B1A7070470522014B1A7089
:1021F000704700BF20100240024B1A6A1043186259
:10220000704700BF00100240014B1860704700BFCC
:102210003C04424210B4284B5B6803F00C03042BCF
:1022200005D0082B06D0F3B9244B03601DE0234BE7
:1022300003601AE0204B5A685B68C2F383420232A3
:1022400013F4803F04D11E4B03FB02F202600CE04A
:10225000194B5B6813F4003F14BF194B174B03FB7A
:1022600002F2026001E0154B0360134A5168C1F3AA
:102270000311144B595CC9B2046824FA01F141609E
:102280005468C4F302241C5DE4B221FA04F48460AF
:102290005468C4F3C2241C5DE4B2E140C1605268DA
:1022A000C2F3813213441B7CDBB2B1FBF3F1016159
:1022B0005DF8044B704700BF0010024000127A0026
:1022C00000093D00AC04002021B1054B5A691043C0
:1022D00058617047024B5A6922EA00005861704702
:1022E0000010024021B1054B9A6910439861704774
:1022F000024B9A6922EA0000986170470010024080
:1023000021B1054BDA691043D8617047024BDA6995
:1023100022EA0000D86170470010024021B1054B4D
:10232000DA681043D8607047024BDA6822EA00008E
:10233000D86070470010024021B1054B1A69104364
:1023400018617047024B1A6922EA00001861704751
:1023500000100240014B1860704700BF4004424229
:102360004309012B02D1074B1B6804E0022B054BEC
:102370000CBF1B6A5B6A00F01F0023FA00F000F03C
:102380000100704700100240034B9B6818420CBFCD
:1023900000200120704700BF00100240014B187060
:1023A000704700BF0A1002402DE9F04F83B081460C
:1023B0000D4690460093BDF830B0BDF838A0BDF88A
:1023C0003C400190D826304B06FB0036C6F8CC20A6
:1023D0000846FDF7E7FE98F80030234400FB03F0C1
:1023E000031BA6F8CA3086F8D040BAF1000F15D109
:1023F0000024DFF89480D827019807FB00F705E058
:10240000E4B22A5D3E44464472701C46E6B2284659
:10241000FDF7C8FE631C8642F2DB16E02846FDF796
:10242000C1FE10F0FF0410D00023174EC0B20138D7
:10243000D827019907FB01F7E95CC21A3A443244F4
:1024400051700133DAB29442F6D80F4AD82303FB15
:1024500009F902EB09030D49A1FB0B018909C82009
:1024600000FB11BBA3F8D2B0BDF83410A3F8D41010
:1024700083F8D1A0009983F8D610012302F809301F
:1024800003B0BDE8F08F00BF480600201F85EB5168
:1024900070B4FF2A0DD0D8250F4C05FB00440F4D1A
:1024A000A5FB0265AD09C82606FB1522D2B2A4F829
:1024B000D220272B05D8D824074A04FB0022A2F8F3
:1024C000D430054BD82202FB00F01A1882F8D6103F
:1024D00001221A5470BC7047480600201F85EB513A
:1024E000D82303FB00F00021014A1154704700BFBC
:1024F0004806002030B484B005460B4B6C46186883
:1025000059689A68DB680FC405F00F03234413F879
:10251000100C04EB151515F8103C43EA0010C0B27E
:1025200004B030BC704700BFF4470008F0B585B078
:102530000C460023019302930393D822434B02FBE2
:102540000133B3F8D230834203D9C83080B283421A
:1025500079D8C01AD8223D4B02FB0433B3F8CA30F5
:10256000984270DC394B02FB0433D3F8CC100A7864
:1025700093F8D030134490FBF3F503FB1505AA4202
:1025800061DDD826314D06FB045595F8D150C5B90B
:102590002F4E86FB0056C517C5EBA615C82606FBB1
:1025A000150595FBF3F0D82606FB0406274F3E449D
:1025B0007678203E03FB105006FB02130344987804
:1025C0001AE0234E86FB0056C517C5EBA615C82694
:1025D00006FB150595FBF3F0D82606FB04061B4FFA
:1025E0003E447678203E03FB105006FB0222531C2B
:1025F0001B1AC85CFFF77EFFD822144B02FB043481
:10260000B4F8D430984094F8D630022B05D804AAF8
:1026100002EB830343F80C0C12E0033B032B0FD8AF
:10262000DFE803F00205080B0190029008E0039038
:10263000029005E00190039002E003900190029067
:1026400001A800F0E1FA05B0F0BD00BF4806002087
:102650001F85EB5130B40A4DC0EBC0002C186170DF
:10266000A2712371BDF808306371BDF80C30A370FE
:10267000BDF81030E37001232B5430BC704700BF0D
:1026800074050020C0EBC0000022014B1A547047B3
:1026900074050020884204D1904214BF002001201C
:1026A0007047884206D290420DD8914234BF002034
:1026B00001207047884208D9904208D9914234BF1E
:1026C0000020012070470020704700207047012043
:1026D000704700BF2DE9F04105460C46C1EBC10330
:1026E000B74A13445B78062B00F2A781DFE813F0AA
:1026F000120007003B005B00B500FC005901C4EB71
:10270000C404AF4B1C442079A179012200F0ACFA3B
:10271000BDE8F081C4EBC403A94A13449A78DB787E
:102720009A420FD9824202D3984280F08681C4EB4C
:10273000C404A34B1C442079A179012200F094FA2F
:10274000BDE8F081904240F27881984280F0758136
:10275000C4EBC4049A4B234418799979012200F000
:1027600083FABDE8F081C4EBC403954A13449B7817
:10277000834240F06281C4EBC40313441D795B794A
:10278000AB42C0F05A81C4EBC4041444012628466D
:10279000A179324600F068FA0135EDB26379AB42B7
:1027A000F5D2BDE8F081C4EBC403854A13449B789D
:1027B000834205D0C4EBC4031344DB78834217D1B2
:1027C000C4EBC4037E4A13441E795B79B3420FD332
:1027D000C4EBC40317461F444FF001083046B979D3
:1027E000424600F041FA0136F6B27B79B342F5D2A7
:1027F000C4EBC403724A1A449378D278934216D930
:102800009D4201D9C82D02D99D4280F01681C4EBAA
:10281000C4046B4B1C442079A179012200F024FAF6
:102820006079A179012200F01FFABDE8F0819D4294
:1028300040F20381954280F00081C4EBC404604BF8
:102840001C442079A179012200F00EFA6079A17967
:10285000012200F009FABDE8F081C4EBC403584A34
:102860001A449378D27893421FD9984201D9C82844
:1028700002D99D4280F0E180C4EBC403504A134466
:102880001D795B79AB42C0F0D880C4EBC40414441A
:1028900001262846A179324600F0E6F90135EDB26D
:1028A0006379AB42F5D2BDE8F0819842C0F0C580B3
:1028B000904200F2C280C4EBC403414A13441D7924
:1028C0005B79AB42C0F0B980C4EBC4041444012668
:1028D0002846A179324600F0C7F90135EDB2637997
:1028E000AB42F5D2BDE8F081C4EBC403344A1344D3
:1028F0009F78DE785FFA80F8384631464246FFF727
:10290000C9FE002800F09980B7420BD8C7EB4505F7
:10291000AD1B002D3E44B4BFA6EB4806C6EB4806EF
:10292000F6B223E01E35274A82FB05139B11C8200F
:1029300000FB13531E3782FB0751891100FB1171F5
:102940001E3682FB0652921100FB1262C1EB43005D
:10295000801A002805DA0A44A2EB430303F0FF06BD
:1029600004E08E18C6EB430606F0FF06C4EBC40273
:10297000134B13441D7976B25B799B1B9D425CDC43
:1029800014460F4B1C4401272846A1793A4600F013
:102990006BF90135EDB263799B1B9D42F4DDBDE817
:1029A000F081C4EBC403064A13449B781A1A012A27
:1029B0000DD0C21A012A0AD033B9C7281ED106E0A9
:1029C000740500201F85EB51C0B9C72B16D1C4EB8D
:1029D000C4031B4E1E443079B179012200F044F942
:1029E00030790138C0B2B179012200F03DF9307977
:1029F0000238C0B2B179012200F036F9C4EBC40349
:102A00000F4A13449B78AB4217D1C4EBC403134461
:102A10001B795D1EEDB201339D420EDCC4EBC40494
:102A2000144401262846A179324600F01DF90135EB
:102A3000EDB2237901339D42F4DDBDE8F08100BFA2
:102A40007405002030B587B004460D46038A9BB25A
:102A500023F44053CA8813430382828992B20989BE
:102A6000AB880B4369890B4322F4B05222F00C026D
:102A700013439BB28381838A9BB223F44073AA8958
:102A80001343838201A8FFF7C5FB1D4B9C420CBF7B
:102A9000049A039AA3891BB2002B08DA02EB820284
:102AA00002EB82022B685B00B2FBF3F207E002EB61
:102AB000820202EB820229688900B2FBF1F2114B1B
:102AC000A3FB02135B091801642103FB1123A189F5
:102AD00009B2002908DADB0032330A4DA5FB0323D3
:102AE000C3F34213034307E01B013233054DA5FB3B
:102AF0000313C3F3431303439BB2238107B030BDD9
:102B0000003801401F85EB5129B183899BB243F402
:102B1000005383817047838923F400531B041B0CEB
:102B200083817047034B1A6802F038021043186023
:102B3000704700BF00200240044B1A6822F01002C8
:102B40001A601A6810431860704700BF00200240E6
:102B500070B590B0234D284600F0A4FB0024ADF8DA
:102B600038404FF44043ADF82C30ADF83240ADF86A
:102B700034404FF40073ADF83630ADF83040ADF866
:102B80003A404FF48273ADF82E3028460BA900F07E
:102B9000BBFB28460221012200F0E6FB124E304624
:102BA00000F080FA114B0093114B01931023029314
:102BB0000C230393049480230593069407940894AC
:102BC0004FF4405309930A943046694600F0FAFAEC
:102BD0003046012100F016FB2846012100F0B6FB2B
:102BE00010B070BD00300140300002400C30014098
:102BF00020050020002303491A46CA5401330C2B38
:102C0000FBD17047200500202DE9F0034FF0000CA8
:102C1000E0460125134F1BE005FA03F481590C42ED
:102C20000CD0D108C1F10B0117F8019002F0070494
:102C300005FA04F449EA0404E4B27C540133033293
:102C4000D2B2202BE8D10CF1010CBCF1030F05D05E
:102C50004FEA8C065FFA8CF24346DDE7BDE8F003ED
:102C6000704700BF2005002030B41F2800F22281E9
:102C7000022920D800EB40000144C9B26AB1CB0858
:102C8000C3F10B038C4AD05C01F00701012404FA64
:102C900001F10143C9B2D1540CE1CB08C3F10B03DC
:102CA000854AD05C01F00701012404FA01F120EA11
:102CB0000101D154FEE00339032900F2FB80DFE873
:102CC00001F0023872AA00EB4000C0B2431CDBB234
:102CD000BAB1DC08C4F10B04774A155D03F00703B1
:102CE000012101FA03F32B43DBB21355C308C3F1EF
:102CF0000B03D45C00F0070081402143C9B2D154DA
:102D0000D8E0DC08C4F10B046B4A155D03F007033F
:102D1000012101FA03F325EA03031355C308C3F1A4
:102D20000B03D45C00F00700814024EA0101D15478
:102D3000C0E000EB4000C0B2431CDBB2CAB1DC080B
:102D4000C4F10B045C4A155D03F00703012101FA8D
:102D500003F32B43DBB213550230C0B2C308C3F1F7
:102D60000B03D45C00F0070081402143C9B2D15469
:102D7000A0E0DC08C4F10B044F4A155D03F0070323
:102D8000012101FA03F325EA030313550230C0B20F
:102D9000C308C3F10B03D45C00F00700814024EAB0
:102DA0000101D15486E000EB4000C0B2CAB1C208B4
:102DB000C2F10B02404B9D5C00F00704012101FAB7
:102DC00004F42C43E4B29C540230C0B2C208C2F1F5
:102DD0000B029C5C00F0070081402143C9B299546A
:102DE00068E0C208C2F10B02334B9D5C00F007049F
:102DF000012101FA04F425EA04049C540230C0B213
:102E0000C208C2F10B029C5C00F00700814024EA7A
:102E1000010199544EE000EB4000C0B2411CC9B220
:102E200022B3CC08C4F10B04234B1D5D01F0070154
:102E3000012202FA01F12943C9B21955C108C1F1B1
:102E40000B015D5C00F0070402FA04F42C43E4B2C9
:102E50005C540230C0B2C108C1F10B015C5C00F0EF
:102E6000070082402243D2B25A5423E0CC08C4F176
:102E70000B04114B1D5D01F00701012202FA01F163
:102E800025EA01011955C108C1F10B015D5C00F093
:102E9000070402FA04F425EA04045C540230C0B2C8
:102EA000C108C1F10B015C5C00F00700824024EA1C
:102EB00002025A5430BC704720050020782817D1F0
:102EC000114B5B78FBB1104B1A78104B1978531EDD
:102ED00041FA03F313F0010F4FF010010C4B14BF34
:102EE00019615961084B013A1A7000225A707047F3
:102EF000282808D11022064B5A61034B1B7813B1C6
:102F00000122014B5A7070472C050020981F0020A9
:102F10000008014008B5012805D10023454A137077
:102F2000454A536008BD0A2856D1434B1B7A0A2BE9
:102F30007FD00A22404B1A723E4B1B78DBB2102B1B
:102F400009D03C4B1B78DBB2082B04D0394B1B78E3
:102F5000DBB2042B3AD1374B1B78DBB2102B16D1E6
:102F6000354B5B7A012B06D9981EC0B2324B59689B
:102F7000FEF762FA0BE0012B05D12F4B9A884FF038
:102F800080439A8703E02C4B5868FDF7DDF8294B06
:102F90001B78DBB2082B03D1274B9888FEF728FA61
:102FA000244B1B78DBB2042B0CD1234B5868FB2835
:102FB00005D800225A72C0B2FEF736F902E0053099
:102FC0001D4B587200221C4B5A6008BD0023194A41
:102FD0001370194A536008BD174B1B7A834228D0DF
:102FE000154B187210F0010F124B1978124B4FEA63
:102FF00041014FF0010202FA01F15A6814BF0A437D
:103000008A435A6010F0020F0A4B19780A4B4FEAB4
:10301000410101F101014FF0010202FA01F15A6888
:103020000CBF0A438A435A60024B1A780132D2B26B
:103030001A7008BDC00400202C05002010B586B011
:1030400044F201000121FFF74DF94FF4C063ADF8E0
:10305000143018238DF8173003238DF816300F48DD
:1030600005A9FEF7A5FB4FF4E13301930023ADF86A
:103070000830ADF80A30ADF80C30ADF81030082348
:10308000ADF80E30064C204601A9FFF7DBFC2046C8
:103090000121FFF739FD06B010BD00BF0008014057
:1030A00000380140036823F001031B041B0C03607C
:1030B0000023036043608360C360364B984205D1B0
:1030C000083B5A6842F00F025A607047324B9842F0
:1030D00005D11C3B5A6842F0F0025A6070472F4BF2
:1030E000984205D1303B5A6842F470625A6070478A
:1030F0002B4B984205D1443B5A6842F470425A60C7
:103100007047284B984205D1583B5A6842F47022C8
:103110005A607047244B984205D16C3B5A6842F480
:1031200070025A607047214B984205D1803B5A6823
:1031300042F070625A6070471D4B984205D1083BBF
:103140005A6842F00F025A6070471A4B984205D1F4
:103150001C3B5A6842F0F0025A607047164B984286
:1031600005D1303B5A6842F470625A607047134B85
:10317000984205D1443B5A6842F470425A60704705
:103180000F4B984204D1583B5A6842F470225A605F
:10319000704700BF080002401C000240300002409F
:1031A00044000240580002406C000240800002408F
:1031B000080402401C04024030040240440402405F
:1031C0005804024010B4036823F4FF4323F0700353
:1031D0000C6A8A6814430A6914434A6914438A6969
:1031E0001443CA6914434A6A14438A6A2243134344
:1031F0000360CB6843600B6883604B68C3605DF815
:10320000044B704721B1036843F00103036070472A
:10321000036823F001031B041B0C0360704700BF0D
:103220004160704740F0BF6040F40030014BD8600F
:10323000704700BF00ED00E010B4C378FBB1174B3E
:10324000DB68DB43C3F30223C3F10402417801FAD4
:1032500002F20F21D94084782140114302780901FC
:10326000C9B20F4B1A4482F800130278510902F0D8
:103270001F02012000FA02F243F821200AE003783D
:10328000590903F01F03012202FA03F32031044A13
:1032900042F821305DF8044B704700BF00ED00E0BC
:1032A00000E100E008B5154B98420AD14FF4805078
:1032B0000121FFF733F84FF480500021FFF72EF87B
:1032C00008BD0F4B98420AD14FF480400121FFF70F
:1032D00033F84FF480400021FFF72EF808BD094B6A
:1032E000984209D14FF400400121FFF725F84FF42F
:1032F00000400021FFF720F808BD00BF003001406A
:1033000000380040003C004010B4028802F44152F2
:103310004C880B8823438C882343CC8823430C8917
:1033200023434C8923438C892343CC892343134370
:103330009BB20380838B23F400631B041B0C8383E9
:103340000B8A03825DF8044B704700BF29B10388E4
:103350009BB243F0400303807047038823F040038F
:103360001B041B0C0380704722B183889BB2194356
:103370008180704783889BB223EA01018180704776
:10338000014B1860704700BF00300040014B58608F
:10339000704700BF00300040014B9860704700BF8D
:1033A000003000404AF6AA22014B1A60704700BF65
:1033B000003000404CF6CC42014B1A60704700BF11
:1033C0000030004081F0004102E000BF83F0004384
:1033D00030B54FEA41044FEA430594EA050F08BFB0
:1033E00090EA020F1FBF54EA000C55EA020C7FEA74
:1033F000645C7FEA655C00F0E2804FEA5454D4EBF1
:103400005555B8BF6D420CDD2C4480EA020281EABA
:10341000030382EA000083EA010180EA020281EAF2
:103420000303362D88BF30BD11F0004F4FEA013144
:103430004FF4801C4CEA113102D0404261EB410153
:1034400013F0004F4FEA03334CEA133302D05242D9
:1034500063EB430394EA050F00F0A780A4F1010495
:10346000D5F1200E0DDB02FA0EFC22FA05F28018CF
:1034700041F1000103FA0EF2801843FA05F35941B5
:103480000EE0A5F120050EF1200E012A03FA0EFC34
:1034900028BF4CF0020C43FA05F3C01851EBE3715E
:1034A00001F0004507D54FF0000EDCF1000C7EEB7B
:1034B00000006EEB0101B1F5801F1BD3B1F5001FB9
:1034C0000CD349085FEA30004FEA3C0C04F10104D8
:1034D0004FEA445212F5800F80F09A80BCF1004F01
:1034E00008BF5FEA500C50F1000041EB045141EA83
:1034F000050130BD5FEA4C0C404141EB010111F484
:10350000801FA4F10104E9D191F0000F04BF01462E
:103510000020B1FA81F308BF2033A3F10B03B3F10C
:1035200020020CDA0C3208DD02F1140CC2F10C029C
:1035300001FA0CF021FA02F10CE002F11402D8BFFA
:10354000C2F1200C01FA02F120FA0CFCDCBF41EAC6
:103550000C019040E41AA2BF01EB0451294330BD95
:103560006FEA04041F3C1CDA0C340EDC04F1140472
:10357000C4F1200220FA04F001FA02F340EA030049
:1035800021FA04F345EA030130BDC4F10C04C4F18F
:10359000200220FA02F001FA04F340EA030029466F
:1035A00030BD21FA04F0294630BD94F0000F83F4B9
:1035B000801306BF81F480110134013D4EE77FEA9C
:1035C000645C18BF7FEA655C29D094EA050F08BFE8
:1035D00090EA020F05D054EA000C04BF19461046C9
:1035E00030BD91EA030F1EBF0021002030BD5FEA0D
:1035F000545C05D14000494128BF41F0004130BD35
:1036000014F580043CBF01F5801130BD01F0004588
:1036100045F0FE4141F470014FF0000030BD7FEAFB
:10362000645C1ABF194610467FEA655C1CBF0B46F6
:10363000024650EA013406BF52EA033591EA030F0D
:1036400041F4002130BD00BF90F0000F04BF002105
:10365000704730B54FF4806404F132044FF0000538
:103660004FF0000150E700BF90F0000F04BF0021B1
:10367000704730B54FF4806404F1320410F0004517
:1036800048BF40424FF000013EE700BF42004FEA12
:10369000E2014FEA31014FEA02701FBF12F07F438F
:1036A00093F07F4F81F06051704792F0000F14BF8C
:1036B00093F07F4F704730B54FF4607401F00045D0
:1036C00021F0004120E700BF50EA010208BF704727
:1036D00030B54FF000050AE050EA010208BF70471C
:1036E00030B511F0004502D5404261EB41014FF485
:1036F000806404F132045FEA915C3FF4DCAE4FF089
:1037000003025FEADC0C18BF03325FEADC0C18BF6F
:10371000033202EBDC02C2F1200300FA03FC20FAC0
:1037200002F001FA03FE40EA0E0021FA02F114440D
:10373000C1E600BF70B54FF0FF0C4CF4E06C1CEA22
:1037400011541DBF1CEA135594EA0C0F95EA0C0F97
:1037500000F0DEF82C4481EA030621EA4C5123EA0A
:103760004C5350EA013518BF52EA033541F4801139
:1037700043F4801338D0A0FB02CE4FF00005E1FBEC
:1037800002E506F00042E0FB03E54FF00006E1FB36
:1037900003569CF0000F18BF4EF0010EA4F1FF0479
:1037A000B6F5007F64F5407404D25FEA4E0E6D41B9
:1037B00046EB060642EAC62141EA55514FEAC520CA
:1037C00040EA5E504FEACE2EB4F1FD0C88BFBCF546
:1037D000E06F1ED8BEF1004F08BF5FEA500E50F1F7
:1037E000000041EB045170BD06F0004646EA0101BD
:1037F00040EA020081EA0301B4EB5C04C2BFD4EBEF
:103800000C0541EA045170BD41F480114FF0000EE7
:10381000013C00F3AB8014F1360FDEBF002001F055
:10382000004170BDC4F10004203C35DA0C341BDCCF
:1038300004F11404C4F1200500FA05F320FA04F0A1
:1038400001FA05F240EA020001F0004221F00041D5
:1038500010EBD37021FA04F642EB06015EEA430E48
:1038600008BF20EAD37070BDC4F10C04C4F1200578
:1038700000FA04F320FA05F001FA04F240EA02002B
:1038800001F0004110EBD37041F100015EEA430EFC
:1038900008BF20EAD37070BDC4F1200500FA05F21C
:1038A0004EEA020E20FA04F301FA05F243EA02039B
:1038B00021FA04F001F0004121FA04F220EA0200AA
:1038C00000EBD3705EEA430E08BF20EAD37070BDF0
:1038D00094F0000F0FD101F00046400041EB0101D0
:1038E00011F4801F08BF013CF7D041EA060195F0B2
:1038F000000F18BF704703F00046520043EB03036C
:1039000013F4801F08BF013DF7D043EA0603704758
:1039100094EA0C0F0CEA135518BF95EA0C0F0CD063
:1039200050EA410618BF52EA4306D1D181EA0301A9
:1039300001F000414FF0000070BD50EA410606BFA3
:103940001046194652EA430619D094EA0C0F02D1E8
:1039500050EA013613D195EA0C0F05D152EA03362D
:103960001CBF104619460AD181EA030101F000414B
:1039700041F0FE4141F470014FF0000070BD41F094
:10398000FE4141F4780170BD70B54FF0FF0C4CF46E
:10399000E06C1CEA11541DBF1CEA135594EA0C0F8D
:1039A00095EA0C0F00F0A7F8A4EB050481EA030EDA
:1039B00052EA03354FEA013100F088804FEA0333C1
:1039C0004FF0805545EA131343EA12634FEA02228F
:1039D00045EA111545EA10654FEA00260EF0004150
:1039E0009D4208BF964244F1FD0404F5407402D2A2
:1039F0005B084FEA3202B61A65EB03055B084FEA33
:103A000032024FF480104FF4002CB6EB020E75EB2F
:103A1000030E22BFB61A754640EA0C005B084FEA57
:103A20003202B6EB020E75EB030E22BFB61A7546D4
:103A300040EA5C005B084FEA3202B6EB020E75EB1F
:103A4000030E22BFB61A754640EA9C005B084FEA97
:103A50003202B6EB020E75EB030E22BFB61A7546A4
:103A600040EADC0055EA060E18D04FEA051545EA93
:103A700016754FEA06164FEAC30343EA52734FEA3C
:103A8000C2025FEA1C1CC0D111F4801F0BD141EAB5
:103A900000014FF000004FF0004CB6E711F4801F1A
:103AA00004BF01430020B4F1FD0C88BFBCF5E06FFA
:103AB0003FF6AFAEB5EB030C04BFB6EB020C5FEA0A
:103AC000500C50F1000041EB045170BD0EF0004E5F
:103AD0004EEA113114EB5C04C2BFD4EB0C0541EA91
:103AE000045170BD41F480114FF0000E013C90E68E
:103AF00045EA060E8DE60CEA135594EA0C0F08BF52
:103B000095EA0C0F3FF43BAF94EA0C0F0AD150EA50
:103B100001347FF434AF95EA0C0F7FF425AF1046E3
:103B200019462CE795EA0C0F06D152EA03353FF40B
:103B3000FDAE1046194622E750EA410618BF52EA88
:103B400043067FF4C5AE50EA41047FF40DAF52EA5C
:103B500043057FF4EBAE12E74FEA4102B2F1E043D6
:103B600024BFB3F5001CDCF1FE5C0DD901F0004C64
:103B70004FEAC0024CEA5070B2F1004F40EB8300B4
:103B800008BF20F00100704711F0804F21D113F1E0
:103B90003872BCBF01F00040704741F480114FEA19
:103BA0005252C2F11802C2F1200C10FA0CF320FAA2
:103BB00002F018BF40F001004FEAC1234FEAD323BF
:103BC00003FA0CFC40EA0C0023FA02F34FEA430329
:103BD000CCE77FEA625307D150EA01331EBF4FF0B2
:103BE000FE4040F44000704701F0004040F0FE40CD
:103BF00040F40000704700BF80F0004002E000BFCA
:103C000081F0004142001FBF5FEA410392EA030FC7
:103C10007FEA226C7FEA236C6AD04FEA1262D2EB11
:103C20001363C1BFD218414048404140B8BF5B4216
:103C3000192B88BF704710F0004F40F4000020F0AF
:103C40007F4018BF404211F0004F41F4000121F0C5
:103C50007F4118BF494292EA030F3FD0A2F101020F
:103C600041FA03FC10EB0C00C3F1200301FA03F14D
:103C700000F0004302D5494260EB4000B0F5000F70
:103C800013D3B0F1807F06D340084FEA310102F12F
:103C90000102FE2A51D2B1F1004F40EBC25008BFE1
:103CA00020F0010040EA03007047490040EB0000AB
:103CB00010F4000FA2F10102EDD1B0FA80FCACF1DA
:103CC000080CB2EB0C0200FA0CF0AABF00EBC250D9
:103CD00052421843BCBFD0401843704792F0000FC7
:103CE00081F4000106BF80F400000132013BB5E71A
:103CF0004FEA41037FEA226C18BF7FEA236C21D090
:103D000092EA030F04D092F0000F08BF08467047F4
:103D100090EA010F1CBF0020704712F07F4F04D1C2
:103D2000400028BF40F00040704712F100723CBFD5
:103D300000F50000704700F0004343F0FE4040F4FF
:103D4000000070477FEA226216BF08467FEA2363BD
:103D50000146420206BF5FEA412390EA010F40F4A8
:103D6000800070474FF0000304E000BF10F00043F4
:103D700048BF40425FEA000C08BF704743F09643DB
:103D800001464FF000001CE050EA010208BF7047F6
:103D90004FF000030AE000BF50EA010208BF70477D
:103DA00011F0004302D5404261EB41015FEA010C92
:103DB00002BF84460146002043F0B64308BFA3F18A
:103DC0008053A3F50003BCFA8CF2083AA3EBC2536C
:103DD00010DB01FA02FC634400FA02FCC2F120028B
:103DE000BCF1004F20FA02F243EB020008BF20F0C2
:103DF0000100704702F1200201FA02FCC2F1200228
:103E000050EA4C0021FA02F243EB020008BF20EA1C
:103E1000DC7070474FF0FF0C1CEAD0521EBF1CEA4A
:103E2000D15392EA0C0F93EA0C0F6FD01A4480EA38
:103E3000010C400218BF5FEA41211ED04FF0006321
:103E400043EA501043EA5111A0FB01310CF000404D
:103E5000B1F5000F3EBF490041EAD3715B0040EA73
:103E6000010062F17F02FD2A1DD8B3F1004F40EB43
:103E7000C25008BF20F00100704790F0000F0CF016
:103E8000004C08BF49024CEA502040EA51207F3ADA
:103E9000C2BFD2F1FF0340EAC250704740F40000B5
:103EA0004FF00003013A5DDC12F1190FDCBF00F0A6
:103EB00000407047C2F10002410021FA02F1C2F154
:103EC000200200FA02FC5FEA310040F1000053EAF0
:103ED0004C0308BF20EADC70704792F0000F00F03E
:103EE000004C02BF400010F4000F013AF9D040EA44
:103EF0000C0093F0000F01F0004C02BF490011F4D8
:103F0000000F013BF9D041EA0C018FE70CEAD153D5
:103F100092EA0C0F18BF93EA0C0F0AD030F0004C55
:103F200018BF31F0004CD8D180EA010000F0004009
:103F3000704790F0000F17BF90F0004F084691F0C7
:103F4000000F91F0004F14D092EA0C0F01D1420201
:103F50000FD193EA0C0F03D14B0218BF084608D1CA
:103F600080EA010000F0004040F0FE4040F4000014
:103F7000704740F0FE4040F4400070474FF0FF0CA7
:103F80001CEAD0521EBF1CEAD15392EA0C0F93EAEE
:103F90000C0F69D0A2EB030280EA010C49024FEA40
:103FA000402037D04FF0805343EA111143EA1013F9
:103FB0000CF000408B4238BF5B0042F17D024FF4B1
:103FC000000C8B4224BF5B1A40EA0C00B3EB510F8C
:103FD00024BFA3EB510340EA5C00B3EB910F24BF75
:103FE000A3EB910340EA9C00B3EBD10F24BFA3EBFA
:103FF000D10340EADC001B0118BF5FEA1C1CE0D1C2
:10400000FD2A3FF650AF8B4240EBC25008BF20F074
:10401000010070470CF0004C4CEA50207F32C2BFC8
:10402000D2F1FF0340EAC250704740F400004FF065
:104030000003013A37E792F0000F00F0004C02BF96
:10404000400010F4000F013AF9D040EA0C0093F060
:10405000000F01F0004C02BF490011F4000F013BBA
:10406000F9D041EA0C0195E70CEAD15392EA0C0F22
:1040700008D142027FF47DAF93EA0C0F7FF470AF5A
:10408000084676E793EA0C0F04D14B023FF44CAF9D
:1040900008466EE730F0004C18BF31F0004CCAD132
:1040A00030F000427FF45CAF31F000437FF43CAF6E
:1040B0005FE700BF4FF0FF3C06E000BF4FF0010C90
:1040C00002E000BF4FF0010C4DF804CD4FEA400272
:1040D0004FEA41037FEA226C18BF7FEA236C11D0BC
:1040E00001B052EA530C18BF90EA010F58BFB2EB6F
:1040F000030088BFC81738BF6FEAE17018BF40F0EF
:10410000010070477FEA226C02D15FEA402C05D1A2
:104110007FEA236CE4D15FEA412CE1D05DF8040B27
:10412000704700BF844608466146FFE70FB5FFF7BA
:10413000C9FF002848BF10F1000F0FBD4DF808ED72
:10414000FFF7F4FF0CBF012000205DF808FB00BF63
:104150004DF808EDFFF7EAFF34BF012000205DF8BD
:1041600008FB00BF4DF808EDFFF7E0FF94BF01200A
:1041700000205DF808FB00BF4DF808EDFFF7D2FF07
:1041800094BF012000205DF808FB00BF4DF808ED4A
:10419000FFF7C8FF34BF012000205DF808FB00BF17
:1041A0004FEA4002B2F1FE4F0FD34FF09E03B3EB44
:1041B00012620DD94FEA002343F0004310F0004F84
:1041C00023FA02F018BF404270474FF000007047DA
:1041D00012F1610F01D1420205D110F0004008BF79
:1041E0006FF0004070474FF0000070477365630048
:1041F00092A5ACAF3A2000007F0000000508000047
:1042000000000000004F00000007000700147F14AA
:104210007F14242A7F2A1223130864623649552208
:10422000400005030000001C2241000041221C0048
:1042300014083E081408083E080800503000000822
:1042400008080808006060000020100804023E51C1
:1042500049453E00427F4000426151494621414567
:104260004B311814127F1027454545393C4A4949BE
:104270003001710905033649494936064949291E65
:1042800000363600000056360000081422410014A3
:104290001414141400412214080201510906324971
:1042A00071413E7E1111117E7F494949363E41419F
:1042B00041227F4141221C7F494949417F09090927
:1042C000013E4149493A7F0808087F00417F41008B
:1042D0002040413F017F081422417F404040407F01
:1042E000020C027F7F0408107F3E4141413E7F095E
:1042F0000909063E4151215E7F091929464649496F
:10430000493101017F01013F4040403F1F204020D3
:104310001F3F4070403F631408146307087008078C
:104320006151494543007F414100020408102000CB
:1043300041417F000402010204404040404000012E
:1043400002040020545454787F484444383844448C
:104350004428384444487F3854545418087E09018E
:10436000020C5252523E7F0804047800447D400003
:104370002040443D007F1028440000417F40007CE5
:10438000041804787C0804047838444444387C14C5
:10439000141408081414187C7C08040408485454A5
:1043A0005420043F4440203C4040207C1C204020BE
:1043B0001C3C4030403C44281028440C5050503C99
:1043C0004464544C44000836410000007F00000063
:1043D00041360800020102020100000000007E11C7
:1043E00011117E7F494949337F494949367F01018F
:1043F0000103E0514F41FF7F4949494177087F0858
:104400007741494949367F1008047F7C2112097C95
:104410007F0814224120413F017F7F020C027F7FF1
:104420000808087F3E4141413E7F0101017F7F092D
:104430000909063E4141412201017F01014728103F
:1044400008071C227F221C63140814637F4040402D
:10445000FF070808087F7F407F407F7F407F40FF45
:10446000017F4848307F4830007F007F4848302235
:104470004149493E7F083E413E462919097F205463
:104480005454783C4A4A49317C545428007C0404F2
:10449000040CE0544C44FC38545454186C107C10F8
:1044A0006C44445454287C2010087C7C4122117CAC
:1044B0007C1028440020443C047C7C0810087C7C50
:1044C0001010107C38444444387C0404047C2313CA
:1044D00008646223130864622313086462231308C8
:1044E000646223130864622313086462231308645C
:1044F000622313086462231308646223130864624E
:10450000231308646223130864622313086462237C
:10451000130864622313086462231308646223137C
:104520000864622313086462231308646223130877
:10453000646223130864622313086462231308640B
:1045400062231308646223130864622313086462FD
:10455000231308646223130864622313086462232C
:10456000130864622313086462231308646223132C
:104570000864622313086462231308646223130827
:1045800064622313086462231308646223130864BB
:1045900062231308646223130864622313086462AD
:1045A00023130864622313086462231308646223DC
:1045B00013086462231308646223130864627C1482
:1045C000141408384444442804047C04040C505057
:1045D000503C3048FC483044281028447C4040403F
:1045E000FC0C1010107C7C407C407C7C407C40FCAF
:1045F000047C5050207C5050207C7C50502000285F
:10460000445454387C10384438085434147C000026
:104610000305000000001D00000000000000000075
:1046200000000000000000000C000E110000110E40
:10463000000000040E040003000404040002000053
:1046400000001F111F001F080D13090A15111F0478
:104650001812151D17150F1C13101F151F1E151DE1
:10466000000A00000B00040A000A0A0A000A0400FB
:1046700000000000000F140F1F150A0E110A1F1171
:104680000E1F15151F14141D151E1F041F111F11B9
:10469000111E101F041B1F01011F081F0F04070E0E
:1046A000110E1F141C0C120F1F140B091512101FD2
:1046B000101F011F1E011E1F061F1B041B180718B9
:1046C000131519001F11000000111F000408040138
:1046D0000101000C000609071F0507060909070567
:1046E0001F0E1508041F141D151E1F0407001700B8
:1046F0000117001F0205101F001F081F0F040706E7
:1047000009060F0A04040A0F0F0404091512040F06
:10471000050601070601060F020F0D020D0D020C22
:10472000090B0D041F11001F00111F0400000000E1
:104730000000000001000001000001000001000075
:104740000100000100000100000100000100000163
:104750000000010000010000010000010000010054
:104760000001000001000001000001000001000044
:104770000100000100000100000100000100000133
:104780000000010000010000010000010000010024
:104790000001000001000001000001000001000014
:1047A0000100000100000100000100000100000103
:1047B00000000100000100000100000100000100F4
:1047C00000010000010000010000010000010000E4
:1047D00001000001000001000001000001000001D3
:1047E00000000100000100000100000100000100C4
:1047F000000100000008040C020A060E0109050D64
:04480000030B070F90
:104804000000002000000020000000200000002024
:10481400007F000000000000EA0000009404002073
:104824007C040020640400204C0400203004002098
:1048340014040020F8030020D8030020B80300204B
:10484400980300207C03002058030020400300202C
:104854002403002008030020E8020020CC020020EA
:10486400B0020020980200207C0200205C0200209C
:10487400380200201C020020FC010020E00100207E
:10488400BC010020A0010020840100206001002060
:1048940044010020280100200C010020E800002031
:1048A400C8000020A800002000000020C80000204C
:1048B4005803002000000020F397A0E12082EBAA17
:1048C400AB2E000000000000A8000020E80000203B
:1048D4005803002000000020F297A0E12082AAAB38
:1048E4002E00000000000000C8000020000000208E
:1048F4005803002000000020F182AAAB3A312F8235
:10490400EBAAAB3A300000000000000000000020D9
:10491400280100207C03002000000020E58CA0EF8B
:10492400E2ADA8AA000000000C0100204401002010
:104934007C03002000000020E484A0E2A00000002A
:104944000000000028010020600100207C030020FA
:1049540000000020E382E0A5ACEF000000000000AE
:1049640044010020840100207C030020000000207A
:10497400E297A0E12E20AEE2ACA5E2AAA8000000D6
:104984000000000060010020000000207C030020E3
:1049940000000020E191E2E0A5ABAAA8000000001D
:1049A40000000020000000209803002000000020E8
:1049B400D134A920E3A4A0E00000000000000020FE
:1049C400E0010020B803002000000020C497A0E10B
:1049D400AEA2AEA920E3A4A0E00000000000000005
:1049E400BC010020FC010020B803002000000020CE
:1049F400C334A920E3A4A0E000000000E0010020EB
:104A04001C020020B803002000000020C2312D3316
:104A140020E3A4A0E000000000000000FC0100204E
:104A240000000020B803002000000020C199A5ABBD
:104A3400E7AEAA0000000000000000205C02002095
:104A4400D803002000000020B397A0E1AEA2AEA9D5
:104A540020E3A4A0E00000000000000038020020D1
:104A64007C020020D803002000000020B28CA5E2C4
:104A7400E0AEADAEAC000000000000005C0200201F
:104A840000000020D803002000000020B199A5AB4D
:104A9400E7AEAA000000000000000020B0020020E1
:104AA400F803002000000020A383AEA4000000004F
:104AB40098020020CC020020F8030020000000200F
:104AC400A28CA5E1EFE6000000000000B002002087
:104AD40000000020F803002000000020A184A0E2D0
:104AE400A0000000000000000000002008030020D7
:104AF4001404002000000020948AAEE0E0A5AAE699
:104B0400A8EF000000000000E802002024030020B9
:104B140014040020000000209391A5AAE3ADA4A0F2
:104B240000000000080300204003002014040020BB
:104B340000000020928CA8ADE3E2A0000000000079
:104B440024030020000000201404002000000020A2
:104B54009197A0E100000000000000207C030020E9
:104B640030040020E8000020F080A2E2AE2082AAF7
:104B7400AB2F82EBAAAB000000000000580300201A
:104B8400980300203004002084010020E096A2A5B0
:104B9400E2000000000000007C030020B8030020B5
:104BA40030040020A0010020D08CA5E2E0AEADAE20
:104BB400AC0000000000000098030020D80300208F
:104BC400300400201C020020C087A2E3AA2E2092F9
:104BD400AEAD000000000000B8030020F803002080
:104BE400300400207C020020B083E0AEACAAAEE129
:104BF400E2EC000000000000D803002014040020B0
:104C040030040020CC020020A084A0E2A000000018
:104C140000000000F8030020000000203004002001
:104C2400400300209082E0A5ACEF000000000000EB
:104C340000000020000000200000002014040020D8
:104C4400808CA5ADEE0000000000000000000020F4
:104C5400000000200000002000000020607F000011
:104C640000000000940400207C04002000000020C8
:104C740000000020407F00000000000064040020C9
:104C8400940400200000002000000020207F000089
:104C9400000000007C0400206404002000000020C8
:104CA40000000020007F0000000000000000000061
:104CB40001020304010203040607080902040608AA
:044CC400FF000000ED
:0400000508000000EF
:00000001FF
