:020000040000FA
:02000000942B3F
:08000800FB00FB0E030EFC00DF
:10001000831203138B1C3128FF308100711F1628B7
:100020004808CA004908CB0071131B284808CC00B7
:100030004908CD007117FE14C801C901D801D901C2
:10004000DA01DB01DC01D1015E08DD00FE1D2F2895
:100050005508D2005608D3005708D400FE118B1063
:100060003E280B1D74288117C90F3E28C80F3E2853
:100070008316FF308600F730850083125B0849063F
:10008000031D6B285C084806031D6B280408FD004F
:100090005D088400000886000510001805145D0343
:1000A0004524DD007D0884005408DA07031C5B2822
:1000B000D90A0319D80A5308D9070318D80A5908C6
:1000C000DB005808DC00DA1F6828DB0A0319DC0AA9
:1000D0005008D1007328510803197328D10B7328D5
:1000E0000030860005100B118C1CD8280508083A32
:1000F00008398511031D8515DF08031DDF03CF0FA8
:100100008A28CE0F8A28E30AED037E153C30CF0003
:10011000F630CE00F118D728F11D9428F20BD7281D
:100120000519F111F20AD728711CA0280519D72842
:1001300071100630F2000D30F300F401F501D728FC
:100140000508710604390319AD28F1160630711E31
:100150000230F200711105197115711ABB28F20BEA
:10016000D728031005190314F50DF40D7116F112BB
:100170000430F200D728F11AC528F20BD728F10174
:100180007114F1158030F200D7287112F30BD728C3
:10019000F50DF40DF50DF40D0310741F0314F50C9B
:1001A0000310F41A0314F50C1F30F405F1148C102D
:1001B0007C0E83007B0E0900F9017A08F802031C0B
:1001C000E228E6280130F702031CE828F90ADD28B6
:1001D0007A08F80700344A084C06031D18294B0812
:1001E0004D06031D1829F7014A08F8007830FA0077
:1001F000DC207908D5007808F7004B08F800DC20EF
:100200007908D6007808F700F801DC207908D700D3
:100210000310560CD000F7000310F70C0310770CF6
:10022000D007831601308600F43085008312FE1556
:10023000FE10003478306302031C2029E300E20A38
:100240003C306202031C2629E200E10A18306102F8
:10025000031C2C29E100E40A2030E7006508043A79
:100260000319E703023A0319E7030F3A0319E703F7
:10027000023A0319E703093A031D45291D30E70037
:1002800066184529E6184529E70A67086402031C31
:100290004C29E400E40AE50A0D306502031C5329E9
:1002A000E500E50AE60A643066020318E6017E11FD
:1002B000003482073E344134413441343E3400340A
:1002C00021347F34013400342134433445344934FB
:1002D0003134423441345134693446340C341434AA
:1002E00024347F34043472345134513451344E3414
:1002F0001E342934493449340634403447344834B0
:100300005034603436344934493449343634303426
:10031000493449344A343C340034363436340034B9
:1003200000340034003400340034003482073E349A
:100330004134413441343E34003440347F3442341B
:1003400000344634493451346134423431344B340E
:1003500045344134213410347F3412341434183489
:1003600039344534453445342734303449344934FC
:100370004A343C340334053409347134013436349E
:1003800049344934493436341E34293449344934E3
:10039000063400340834083408340034003400349F
:1003A0000034003400341E306C02031C783EFA0026
:1003B0006308FE397A060319EF160310620D7A06F8
:1003C000031DE4299F30EF046108F8000310F80DC5
:1003D000F80DF807F80D6208F7000630F702031C65
:1003E000F329F80AEE297830F8020318F42978077F
:1003F0007A06031D08008130EF04080006306C0205
:10040000031C0800031D062AEA01EB0136306C02CA
:10041000031808006B08031D162A5B226A08031DD7
:10042000162A6908031D162A3730E900EB0A063040
:100430006B06031D1E2AEB01EA0A080069088A10F0
:100440000A145921EF00E90A080042306C02031C2B
:100450000800031D2D2AEA01EB0172306C0203181B
:1004600008006B0803194F22EB0A06306B06031DC8
:100470003C2AEB01EA0A080069088A100A1496214E
:10048000EF00E90A0800F700F8010A30F702031C40
:100490004B2AF80A462AF707780E770708006A08F9
:1004A0008A018A1482076D2A7D2A8B2A6F2A7F2A65
:1004B0008B2A712A812A6A088A018A1482077B2A78
:1004C0006B2A8B2A792A692A8B2A762A0310630CD5
:1004D000722A6208722A6108722A6608722A6508FE
:1004E000722A640843220F39E900872A0310630C3B
:1004F000822A6208822A6108822A6608822A65089E
:10050000822A64084322F039E900E90E6908E90DFE
:10051000E90DE90708003230E90008006C086806B8
:10052000031D08006F170A30E807080074081D3A19
:10053000031D000075087F39003A0319E301103AE2
:100540000319022B013A0319052B103A0319E20A89
:100550000C3A03190B2B0F3A0319182B1F3A0319E6
:10056000112B1E3A03191E2B103A0319242B173A8C
:100570000319292B113A03192F2B103A0319E60AF4
:100580001A3A0319342B193A0319FE2A4F3A031960
:10059000FA2A7508F6060319E32A7F39073A031980
:1005A000E82A0F3A0319EE2A013A0319F12A293AE7
:1005B0000319F42A013A0319F72A4C3A03193D2B7F
:1005C000583A03193B2B7508F6007E15F110080008
:1005D0000230FF068510FF188514E32A2030FE063E
:1005E000E32A4030FE06E32A1030FE06E32A80307C
:1005F000FE06E32A5E0A4D24DE00E32A5E0345245C
:10060000DE00E32AE30AE30AE32A0230E3020318E6
:10061000E32A7830E3070130E2020318E32A3C3092
:10062000E2070130E1020318E32A1830E107E32A68
:10063000E10A183061060319E101E32A6703640641
:100640000319E401E40AE32AE40BE32A6703E40064
:10065000E32A0C3065060319E501E50AE32AE50BF8
:10066000E32A0C30E500E32A0130E6020318E32A0E
:100670006330E600E32A4023E32A4030FF06E32A02
:10068000FF121030FF067F1EE32A7E23FF160800AC
:10069000D001D1013730DE00DD003C30CF00F63034
:1006A000CE00FE01FF010C30E100E201E301013068
:1006B000E400E5006630F101F201711408008501E3
:1006C0008601831303138316FF308500851186008E
:1006D000831207309F0000348B018C01053092009B
:1006E00083168C0198308100F93092008C148312AB
:1006F0008B160B160B178B17810108002030840016
:100700008001840A48300406031D882B5830840772
:10071000F0300406031D802B0317A201A40103136C
:1007200083169B01831208005F2348237E236C23DA
:100730007E16FE127E13FE178514FF14F118962202
:10074000FF1EA72B5F08031DA72BDF030E24FE1837
:10075000EB207E1D9E2B1A217F1B41247F1A9E2B8E
:10076000EC01E8017E10203084007E10EF01FE1ABB
:10077000FE217E1B25227E1AD321FE1B8E226F08AE
:100780008000EC0A78306C0603199E2B840A4830EE
:100790000406031DB62B58308407B62BA100A00118
:1007A0002030A102031CA1017F3021020318A10007
:1007B0000310A10DA00D0310210DF700200DF8006E
:1007C0007708A1070318F80A7808A0070530A007E2
:1007D0000630A200080020088A002108FF24A10A90
:1007E0000319A00AA20308007E2383169B01E430AC
:1007F00084000E30F9001C149B0A1A080317831298
:10080000CE23EB238000040A4D248400A20B012C8C
:1008100003138316F90BFB2B8312080003178312B3
:100820002208031D2D2C240803191D2CA40B2B2C8E
:100830007F1F1D2C031340230800031383161C1471
:100840009B0A9B131A0803199B0103178312031DAC
:100850002C2C0F30A4002030CE23EB23F700BF3028
:1008600084000008F800770880007808F700040387
:1008700045248400E3300402031D312C831203134A
:10088000080063080319402308001F3A0319F030D9
:10089000803A0319D8309F3A0800483A0319E830E3
:0A08A000B83A0319D030F03A08000E
:0209FE0082076E
:100A00000034003400340034003400340034003446
:100A100079340034003400340034703400347034DD
:100A20000034003414347F3414347F3414340034EC
:100A300012342A347F342A34243400346234643447
:100A400008341334233400343634493455342234D2
:100A50000534003400345034603400340034003441
:100A600000341C3422344134003400340034413426
:100A700022341C3400340034143408343E34083436
:100A800014340034083408343E3408340834003454
:100A9000003405340634003400340034083408349B
:100AA0000834083408340034003403340334003488
:100AB0000034003402340434083410342034003458
:100AC0003E344134413441343E3400340034213426
:100AD0007F34013400340034213443344534493404
:100AE00031340034423441345134693446340034B2
:100AF0000C34143424347F340434003472345134CC
:100B0000513451344E3400341E342934493449347C
:100B100006340034403447344834503460340034B0
:100B20003634493449344934363400343034493465
:100B300049344A343C3400340034363436340034DA
:100B4000003400340034353436340034003400349A
:100B5000083414342234413400340034143414344E
:100B60001434143414340034003441342234143432
:100B700008340034203440344534483430340034B0
:100B8000263449344F3441343E3400343F34443405
:100B9000443444343F3400347F3449344934493494
:100BA000363400343E34413441344134223400344C
:100BB0007F344134413422341C3400347F3449348E
:100BC00049344934413400347F344834483448345B
:100BD000403400343E344134493449342F340034F5
:100BE0007F340834083408347F340034003441340E
:100BF0007F344134003400340234013441347E34D3
:100C0000403400347F340834143422344134003406
:100C10007F34013401340134013400347F34203412
:100C2000183420347F3400347F34103408340434D2
:100C30007F3400343E344134413441343E34003456
:100C40007F34483448344834303400343E344134FE
:100C5000453442343D3400347F3448344C344A34D3
:100C60003134003431344934493449344634003461
:100C7000403440347F344034403400347E340134D6
:100C8000013401347E3400347C34023401340234C3
:100C90007C3400347E340134063401347E34003434
:100CA0006334143408341434633400347034083436
:100CB00007340834703400344334453449345134F3
:100CC0006134003400347F34413441340034003422
:100CD000543434341F343434543400340034413404
:100CE00041347F3400340034103420344034203414
:100CF000103400340134013401340134013400343F
:100D000000344034203410340034003402341534BC
:100D1000153415340F3400347F3409341134113450
:100D20000E3400340E3411341134113402340034D2
:100D30000E341134113409347F3400340E34153438
:100D4000153415340C34003408343F3448344034FE
:100D50002034003418342534253425343E3400340E
:100D60007F340834103410340F340034003411341C
:100D70005F340134003400340234013411345E3401
:100D8000003400347F3404340A3411340034003425
:100D9000003441347F340134003400341F341034C3
:100DA0000C3410340F3400341F3408341034103431
:100DB0000F3400340E341134113411340E34003435
:100DC0003F34283428342834103400341034283484
:100DD000283418343F3400341F34083410341034AD
:100DE0000834003409341534153415340234003411
:100DF00010347E3411340134023400341E34013492
:100E0000013402341F3400341C34023401340234FF
:100E10001C3400341E340134063401341E340034D2
:100E200011340A3404340A341134003418340534CB
:100E3000053405341E340034113413341534193498
:100E40001134003400340834363441340034003472
:100E5000003400347F340034003400340034413432
:100E600036340834003400340434043415340E3479
:100E70000434003404340E3415340434043400349F
:100E800014343E3455344134223400343034783410
:100E90007C347C343E341F343E347C347C347834AF
:100EA0003034003400341C343E3477345B347B34CB
:100EB0005B3477343E341C3400340034023415344F
:100EC000153435344F3400340E341534153435347C
:100ED0004D340034003411341F3421344034003494
:100EE0000E341134113431344E3400340E34513454
:100EF000113451340E3400340E3431345134313421
:100F00004E3400341E340134213442341F34003452
:100F10001E342134413422345F3400341E344134D1
:100F2000013442341F3400340034003402340034BD
:100F3000003400340034003402340034003400340F
:100F400000340034023400340034003400340034FF
:100F500002340034003400340034003402340034ED
:100F600000340034003400340234003400340034DF
:100F700000340034023400340034003400340034CF
:100F800002340034003400340034003402340034BD
:100F900000340034003400340234003400340034AF
:100FA000003400340234003400340034003400349F
:100FB000023400340034003400340034023400348D
:100FC000003400340034003402340034003400347F
:100FD000003400340234003400340034003400346F
:100FE000023400340034003400340034043400345B
:100FF000003400340034003402340034003400344F
:02400E00423F2F
:10420000200020003C003D003D003D0020004F000C
:1042100072006900670069006E0061006C00200098
:1042200043006C006F0063006B00200062007900A7
:104230002000420042006C00690063006B00200017
:1042400072006500440065007300690067006E003D
:1042500065006400200062007900200044006100D5
:10426000720069006F0044002E00200020008300CF
:1042700084003D003D003D003E0020002000200065
:10428000200020002000200020002000200020002E
:084290002000200020000000C6
:00000001FF
