:020000040800F2
:10000000001000200923000855230008552300088C
:1000100000000000000000000000000000000000E0
:100020000000000000000000000000005523000850
:100030000000000000000000552300082D1A0008F1
:1000400055230008552300085523000855230008B0
:1000500055230008552300085523000819310008CE
:100060005523000855230008552300085523000890
:100070005523000855230008552300085523000880
:1000800055230008552300080000000055230008F0
:100090005523000855230008A930000855230008FF
:1000A0005523000855230008552300085523000850
:1000B0005523000800000000552300080000000040
:1000C0005FF808F110B5064C2378002B07D1054BDB
:1000D000002B02D0044800E000BF0123237010BDB4
:1000E000700A002000000000A039000808B5084B85
:1000F000002B03D00748084900E000BF0748036809
:10010000002B03D0064B002B00D0984708BDC046FB
:1001100000000000A0390008740A00206C0A0020CA
:1001200000000000021C031C1978981A002901D055
:100130000133F9E7704710B5041CFFF7F3FF231CE8
:1001400001381A1B824206DA1A78215C197022548F
:1001500001330138F5E710BDF7B5C21784180D1C3F
:10016000019054400026201C0A2103F083F9AB19AA
:1001700030311970201C0A2103F038F9771C041E55
:1001800001D03E1CEFE7019A3B1C002A02DA2D2227
:10019000B71CEA540023EB55281CFFF7CCFFF7BD32
:1001A00010B5031C1C1A01335A1E1278002AF9D10B
:1001B000231C0A1BD25CC2540133002AF9D110BDA2
:1001C000F7B5051C00AF081C0E1CFFF7ABFF09308C
:1001D000C008C0006A46121A954668467860002436
:1001E000301CFFF79FFF844205DC335D7A681355AE
:1001F0000134E4B2F4E77868FFF79DFF2B1C591B2C
:1002000001335A1E1278002AF9D10B1C7868421A61
:10021000D25CEA540133002AF8D1BD46F7BD000094
:10022000F0B5012093B0011C01F08CFA802080020F
:10023000012101F087FA0120011C01F09BFA8020C6
:100240008005012101F096FA90206A4600240323DC
:1002500010266946C005137194715371D4710096CC
:1002600002F0BAF9254BDC211868890103F0BEF8C9
:10027000802704ADFF0501386860291C381C2C80DC
:100280002C816C8002F05CFC381C202102F07EFD89
:10029000381C012102F090FC2423201C02A90293A7
:1002A000174D039403F060F8201C012103F06CF853
:1002B000201C012103F07CF8281C02F04DF8114BA2
:1002C00080220793104B0C920893520020230A932C
:1002D0000D920F9380228023D2009B01281C07A936
:1002E0000E92109309960B94119402F075F8281C45
:1002F000012102F08FF813B0F0BDC0462C0600209B
:1003000030000240087400408C0A002070B5254D72
:100310002B1C40331A78824243D01870042840D8EE
:1003200003F05AF8030A1725320000230022EA528C
:100330000233402BFAD134E01B4B00241E781B4BB8
:10034000311CE05A03F0A0F828530234402CF6D1B7
:1003500027E0154B00241E78144B311C4033E05A23
:1003600003F092F828530234402CF5D119E00E4BDB
:1003700000241E780E4B311CE05A03F085F82853F8
:100380000234402CF6D10CE0074B00241E78084BB9
:10039000311C4033E05A03F077F828530234402CE4
:1003A000F5D170BD8C0A002000000020183700082D
:1003B00098370008FF23002802D008231B1ADBB25D
:1003C000014A13707047C0460000002008B5094B71
:1003D0000433DA8F82420BD0D887074B410118686B
:1003E00003F004F88023DB0501380122D8629A82E9
:1003F00008BDC0468C0A00202C060020F7B50D4D24
:1004000006262B1C44331C78019266430A4A40009E
:10041000825A0A4F4535F253019AB8198280012257
:100420002A70A218D2B28170102A00D100220020B6
:100430001A70FEBD8C0A0020183800082C0B002012
:10044000F8B51B4E331C45331A78002A2FD01949B2
:10045000CD8FADB2002D2AD1341C311C483444312B
:100460002278097891421ED006277A43124B9A18B7
:100470009078FFF74BFF23780F497B43585AFFF7DB
:10048000A5FF23780C4A5F43D719BA88094901337D
:10049000DBB2CA87102B01D0237000E025704536EF
:1004A0000123337003E0281C1D70FFF72FFFF8BDF8
:1004B0008C0A0020940A00202C0B002038B501285B
:1004C0003FD0002822D0022853D12C4BD9791A8949
:1004D0000C074906640F490FE40089012143DC88B9
:1004E0005205E405640F21431C7A5B7A6507A40674
:1004F0002D0D640FD20E29432403D5032143DB08BD
:1005000029431B0519435206114333E01B4B0421B9
:100510001C881A78E405A40E1140E40021435C789D
:100520009207920F64061143A40E1A6864025B8856
:100530002143D402A40E5B04E4039B1521435B0515
:1005400015E00E4B5A799C881107E405640F490F9A
:10055000A401490221431C795B68A4065206A40E3B
:10056000520F9B02214312035B0E1143DB0319431D
:1005700000E0002102F002FA38BDC0468C0B0020DA
:1005800038B5041C02F00AFA031C012C6ED0002CB2
:100590003CD0022C00D091E0494A0721D588041CA8
:1005A00048480C40A40128402043DD08D0800D407D
:1005B0000E24000AA0436D009C090C4028437025BE
:1005C0002401A8432043D071107A5D0A0D4088436E
:1005D0001C0B0C4028433825E400A843204310722C
:1005E00015891C033848E40EA401284020431081DB
:1005F0001C0D000A0140E4002143580E937A517209
:10060000012108408B430343937257E02C4A041C9A
:100610001078032188430C40011C2143042004244A
:100620001840A1430143117015883F21DC08274879
:100630000C40E400284020435C0A10800C40000A73
:100640007E256400A84320435070D80B0140C803A6
:1006500014681F495B00214001431E4811609B0D37
:10066000090C5B0101401943518027E0144A3F21E6
:10067000147908408C43211C01431171958807218E
:100680009C0910480C40A4012840204390805D0A3A
:100690000E24000AA0430D401C0B21406D000C01EC
:1006A000291C0143702081432143517150689902F4
:1006B000094B490EC90303400B43536038BDC04684
:1006C0008C0B00203FFEFFFF3FF8FFFF07FEFFFF00
:1006D000FF7FE0FF1F80FFFFFF7FC0FF38B5824D27
:1006E000824C281C211C01F064F9814B1B78C22B21
:1006F00000D19EE03AD8A22B00D18AE011D8932BEA
:1007000000D17CE006D8912B77D0922B00D0EAE084
:100710006878E5E0942B74D0A12B00D0E3E0A078BA
:10072000DEE0B22B79D00AD8A32B74D0B12B00D045
:10073000D9E00120FFF7C2FE6E4B9888BDE0B32BD5
:1007400071D0C12B00D0CEE00120FFF7B7FE694C7D
:10075000102120798006800E00F068FE0020011C28
:100760006422FFF74BFE2079800685E0E32B00D161
:1007700097E026D8D12B00D184E016D8C32B6AD0BD
:10078000C42B00D0AFE00020FFF798FE594C102199
:100790002368D802800E00F049FE0020011C64226C
:1007A000FFF72CFE2068C00266E0E12B72D0E22B3E
:1007B00000D098E00220FFF781FE4E4B187A4007E8
:1007C0007CE0F12B00D17BE00BD8E42B70D0E52B43
:1007D00000D088E00220FFF771FE464B187A8006B1
:1007E0006CE0F22B75D0F32B00D07CE00220FFF7F9
:1007F00065FE404B587AC00872E0287870E0A8780F
:100800006EE00020FFF75AFE3A4B588840048015EE
:1008100066E0607864E0E07862E00120FFF74EFE79
:10082000344B587942E00120FFF748FE314B5879AC
:1008300035E00020FFF742FE2E4C10212088C00535
:10084000800E00F0F3FD0020011C6422FFF7D6FDAE
:100850002088C00510E00020FFF730FE254C102155
:1008600060784006800E00F0E1FD0020011C64224B
:10087000FFF7C4FD6078400601216422800EFFF777
:10088000BDFD30E00120FFF719FE1A4B1878400734
:10089000C00F25E00220FFF711FE164BD879400665
:1008A0000CE00220FFF70AFE124BD879000705E0A2
:1008B0000220FFF703FE0F4BD888C005400F0FE062
:1008C0000220FFF7FBFD0B4B987AC007C00FC0B2A8
:1008D00006E00220FFF7F2FD064B18894005C00E26
:1008E000102100F0A3FD38BD980B00209C0B0020C8
:1008F000D80A00208C0B002070B5B64DB64E281CCF
:10090000311C01F056F8B54B2C1C1B78311CC22B46
:1009100000D1CAE020D8A22B00D17BE00CD8932BC9
:1009200054D004D8912B3FD0922B47D073E1942B15
:1009300052D0A12B63D06EE1B22B00D18AE004D853
:10094000A32B6FD0B12B75D065E1B32B00D18EE016
:10095000C12B00D19BE05EE1E32B00D1F6E011D882
:10096000D12B00D1D1E006D8C32B00D1ADE0C42BF0
:1009700000D1BAE04FE1E12B00D1CFE0E22B00D172
:10098000D8E048E1F12B00D10DE106D8E42B00D1ED
:10099000EBE0E52B00D1F7E03DE1F22B00D10AE1DD
:1009A000F32B00D12AE136E12B780133DBB2172B90
:1009B00000D9002323700020211C0AE06B7801334A
:1009C000DBB23B2B00D900236370F4E70020A87052
:1009D000291C01F0D3FE1EE1814A824C51884B0450
:1009E0009B1598B2A34200D115E183058020C00376
:1009F0001B187D485B0C0140194351800BE1B37813
:100A00000133DBB21F2B00D901238B70002001F0D2
:100A100027FF00E173780133DBB20C2B00D90123EF
:100A20004B70F3E7F3780133DBB24F2B00D950233F
:100A3000CB70EBE76A4B9A88D105490F072900D1A3
:100A4000E9E00720013101406848890102400A437A
:100A50009A80E0E0624B5A791107490F072900D1CB
:100A6000D9E007200131014049000E200BE05C4B2A
:100A70005A795106490F072900D1CCE007200131EE
:100A800001400901702082430A435A71C3E0544B6C
:100A90001A799106890E3F2900D1BCE0481C3F21FC
:100AA00008408A4302431A71B5E04D4B1A88D105BC
:100AB000890E3F2900D1AEE03F20013101404C4872
:100AC000C90002400A431A80A5E0454B5A785106F6
:100AD000890E3F2900D19EE03F20013101407E2058
:100AE000490082430A435A7095E03D4B1A68D1028F
:100AF000890E3F2900D18EE03F20013101403D4861
:100B0000C90302400A431A6085E0354B1A78510741
:100B100000D580E004210A431A707CE0304BDA797A
:100B20005106490F052976DC0720013101400901F2
:100B3000702016E02A4B1A7A5107490F05296ADC02
:100B4000481C072108408A4302432AE0244BDA79F3
:100B50001107490F05295EDC0720013101404900DA
:100B60000E2082430A43DA7155E01D4BDA88D10525
:100B7000490F05294FDC0720013101401B4889013D
:100B800002400A43DA8046E0154B1A7A9106490F73
:100B9000052940DC0720013101403820C90082438B
:100BA0000A431A7237E00E4B9A7AD00733D40121E8
:100BB0000A439A722FE00A4B1A895105C90E162969
:100BC00029DC1F20013101400B48890102400A4302
:100BD0001A8120E0980B00209C0B0020D80A0020EE
:100BE0008C0B0020FF0100001F80FFFF3FFEFFFF76
:100BF00007FEFFFFFF7FE0FF3FF8FFFF074B5A7A3A
:100C0000D108162907DC1F20013101400720C90047
:100C100002400A435A72FFF761FD70BD8C0B002041
:100C200070B5AF4DAF4E281C311C00F0C2FEAE4B6C
:100C30002C1C1B78311CC22B00D1C4E020D8A22B65
:100C400000D17AE00CD8932B54D004D8912B3FD00C
:100C5000922B47D066E1942B52D0A12B62D061E158
:100C6000B22B00D186E004D8A32B6ED0B12B72D06A
:100C700058E1B32B00D189E0C12B00D195E051E1BF
:100C8000E32B00D1ECE011D8D12B00D1C9E006D87C
:100C9000C32B00D1A6E0C42B00D1B3E042E1E12B8D
:100CA00000D1C7E0E22B00D1CFE03BE1F12B00D136
:100CB00000E106D8E42B00D1E0E0E52B00D1EBE029
:100CC00030E1F22B00D1FDE0F32B00D11EE129E150
:100CD0002B78002B01D0013B00E01723237000206C
:100CE000211C0AE06B78002B01D0013B00E03B2384
:100CF0006370F4E70020A870291C01F03FFD11E1AA
:100D00007A4A7B4C51884B049B1598B2A34200DA77
:100D100008E1830577481B1877485B0C01401943AD
:100D20005180FFE0B378012B01D9013B00E00123A2
:100D30008B70002001F094FDF4E07378012B01D951
:100D4000013B00E001234B70F3E7F378002B00D068
:100D5000013BCB70EDE7654B9A88D105490F00D177
:100D6000E0E00720073101406448890102400A435E
:100D70009A80D7E05D4B5A791107490F00D1D1E035
:100D800007200731014049000E200AE0574B5A79ED
:100D90005106490F00D1C5E0072007310140090184
:100DA000702082430A435A71BCE0504B1A79910675
:100DB000890E00D1B6E0081C3F303F2108408A432D
:100DC00002431A71AEE0494B1A88D105890E00D151
:100DD000A8E03F203F3101404948C90002400A4392
:100DE0001A809FE0414B5A785106890E032900DC96
:100DF00098E03F203F3101407E20490082430A4372
:100E00005A708FE0394B1A68D102890E00D189E0FF
:100E10003F203F3101403B48C90302400A431A606A
:100E200080E0324B1A78510700D47BE004218A43DA
:100E30001A7077E02D4BDA795106490F72D00720EE
:100E4000073101400901702014E0284B1A7A51073C
:100E5000490F67D0C81D072108408A43024327E095
:100E6000224BDA791107490F5CD007200731014086
:100E700049000E2082430A43DA7153E01B4BDA88A3
:100E8000D105490F4ED00720073101401B48890189
:100E900002400A43DA8045E0144B1A7A9106490F62
:100EA00040D00720073101403820C90082430A435F
:100EB0001A7237E00D4B9A7AD00733D501218A4355
:100EC0009A722FE0094B1A895105C90E2AD01F20AA
:100ED0001F3101400C48890102400A431A8121E078
:100EE000980B00209C0B0020D80A00208C0B0020BF
:100EF00002FEFFFF0000C0FF1F80FFFF3FFEFFFF5D
:100F000007FEFFFFFF7FE0FF3FF8FFFF074B5A7A26
:100F1000D10807D01F201F3101400720C90002401F
:100F20000A435A72FFF7DAFB70BDC0468C0B0020F3
:100F300010B50024201C0821FD3000F077FA201C99
:100F400001F02CFD0134202100F070FA032CF1D1C6
:100F500010BD10B50821041CFC2000F067FA201C0D
:100F6000202100F063FA10BD38B5124B80215B8858
:100F700089005B049B159AB20B4201D1002A11D162
:100F80005542ED05ED0D00242A1C211C002001F026
:100F9000D3FC211C084801F04FFF291C074801F031
:100FA0004BFF38BDD505ED0D4D1B8024ADB224029D
:100FB000EAE7C0468C0B00209038000897380008FC
:100FC000144B10B55A88002A22D05200124C92B20B
:100FD00001209A80987163791B075B0F00D0181C61
:100FE000FFF7E8F90D4B1A780132D2B21A70032AD2
:100FF00007D92278510704D5607800221A7040067C
:1010000001E02088C005800E04216422FFF7F6F974
:1010100010BDC046D80A00208C0B00200400002020
:1010200008B5084B08485968084B8902490E598091
:1010300002F02AFA064B1021588000F0F7F9FFF76A
:10104000BFFF08BD8C0B002030750000040000209D
:10105000D80A002070B5364D94B02B1C0833041EFE
:101060009C4262D0334E08223060037C00219343BF
:10107000684650222B7002F069FA2B1CE268083394
:101080009A4203D068462C49FFF78AF8211C113197
:101090006846FFF795F82B1CA46808339C42ECD1F6
:1010A0006846FFF748F8684601F0AAFE3368082151
:1010B000187C00F0BBF93268137C1A0701D5FFF7E2
:1010C0000DFB28781D4C20280CD0402817D0002874
:1010D00023D11B4B03211A788A431A70FFF7EEF9CC
:1010E000221D18E0164B03211A7800208A430121A3
:1010F0000A431A70FFF7E2F9221C20320BE0104B72
:1011000003211A7800208A4302210A431A70FFF74C
:10111000D5F9221C3C320B4B1A600023AB713368AB
:101120005834A34201D1FFF77BFF14B070BDC04615
:10113000D80A0020A00B00209E38000804000020E0
:101140008C0B0020A40B002010B50020FFF718FA2C
:101150000120FFF715FA0220FFF712FA0F4C63681F
:101160009A02520E272A08DC0D4A01201340F02271
:10117000920313436360FFF7A1F9237809489B07A3
:101180009B0F03D0012B03D1203002E0043000E09C
:101190003C30FFF75FFFFFF7E7FE10BD8C0B002030
:1011A000FF7FC0FF0400002010B5104CA022638810
:1011B000121A934201DCC318638061880C4802F064
:1011C00063F90C4B1021588000F030F90A4BA178DC
:1011D0007F2258681140094AC90302400A435A60F5
:1011E0000120FFF76BF9FFF7EBFE10BD04000020B4
:1011F00030750000D80A00208C0B0020FF7FC0FF54
:1012000010B5104C021C638827329A4201DA181A72
:10121000608061880C4802F037F90C4B102158802F
:1012200000F004F90A4BA1787F2258681140094A5E
:10123000C90302400A435A600120FFF73FF9FFF754
:10124000BFFE10BD0400002030750000D80A002049
:101250008C0B0020FF7FC0FF38B5464C23787F2BD6
:101260003FD90238052800D982E002F0B5F8030A18
:101270000E1B8128404B08341B689868A04275D12A
:101280001DE03D4B1B68D86870E03B4D08342B686F
:101290001868FFF7DFFE2B68DB68A34268D1FFF711
:1012A0002BFB65E0344D08342B685868FFF7D2FEFD
:1012B0002B68DB68A3425BD1FFF7B2FC58E02F4DEF
:1012C0002F4C281C211C00F074FB211C281C00F052
:1012D00068FB202100F0AAF8FFF746FEFFF728FE82
:1012E0003FE00138062843D802F076F83B040C149E
:1012F00022303E00204B01201A68224B58339A427C
:1013000036D120E01C4B01201A681E4B58339A42FC
:101310002ED10AE0184C23681868FFF79BFE194B82
:10132000226858339A4223D10A20FFF73DFF1FE07D
:10133000114C23685868FFF78DFE124B2268583312
:101340009A4215D10A20FFF75BFF11E00A4B0D48C6
:101350001B685830834204D0FFF77CFEFFF760FE25
:1013600006E0094B186801E006487430FFF772FE8A
:1013700038BDC046D80A0020A00B0020980B0020E2
:101380009C0B002004000020A40B0020044B96229C
:101390009200DA6200229A6301229A827047C04664
:1013A0000004004070B590268AB0F60502200121A5
:1013B00000F0E0F9301C0721012201F048F98023F8
:1013C00000246A466946009303250223301C1371EA
:1013D0009471557101F000F902A90D800E4D96230C
:1013E0009B00281C4B604C800C818C72012601F004
:1013F000A7FB05A96022281C0A808C604E808C8186
:101400000C8201F02FFC281C311C01F0D5FBFFF7EA
:10141000BDFF0AB070BDC04600040040024B01226F
:10142000D86299639A82704700040040F0B53A4F41
:101430003A4E3A783A4B85B00291F36253439B118E
:10144000B3630123B382051C032000F0E1FA029A82
:1014500000235208039201931C1C019AD3B2039AF1
:10146000934234D2019A51000122131C8B402B402D
:101470008918581E83418A40DBB2154201D00222EE
:101480001343284A032C0FD903210C409C420BD153
:1014900063185B00D35A3A78F36253439B119BB2B3
:1014A000B3630123B3820BE0D91D4900525A397846
:1014B000F2624A43921192B2B2630122B2821C1DBF
:1014C000032000F0A5FA019B01330193C5E73A78A8
:1014D000C8235B00F362534301249B11B3630320D1
:1014E000B48200F095FA3A7896239B00F362534356
:1014F0009B11B363029BB482102B05D0202B05D027
:10150000082B07D1084802E0084800E00848291CD9
:1015100001F092FC05B0F0BD080600200004004078
:101520003B020000A0380008B8380008CA3800089C
:10153000DF380008054B01221968002801D00A4352
:1015400001E091430A1C1A607047C0460010024037
:10155000064B01211A6A8A431A621A6A04218A43D5
:101560001A621A6A104318627047C046001002409F
:10157000054B10B5054A5C6822405A605A68114311
:101580000843586010BDC04600100240FFFFC2FF74
:10159000054B1968002803D0802252040A4301E059
:1015A000024A0A401A60704700100240FFFFFFFE27
:1015B000014B18707047C04607100240034B0321CF
:1015C0005A688A43104358607047C0460010024072
:1015D000034BF0215A688A43104358607047C04655
:1015E00000100240034B044A59680A4010435860F7
:1015F0007047C04600100240FFF8FFFF084B094A41
:1016000059680A405A605A6881B20A435A60196B95
:10161000054A000C0A401A631A6B1043186370479E
:1016200000100240FFBFFFFFFFFEFFFF70B5334D0C
:101630000C236A68041C1340042B01D0082B02D031
:101640002F4B236012E06E686B68B602360F0236CD
:10165000D90302D42B4B5E4307E0E96A0F231940FC
:101660000131274801F0C2FE464326606A68264BD6
:101670001206120F20689A5C011CD14061600A1C9E
:1016800069684905490F5B5CDA40A2602B6BD9059C
:1016900001D41E4B06E0194B5B68590401D4530872
:1016A00000E09308E3602B6B590601D4184B01E06E
:1016B00080231B0223612B6BD90602D4104B63617C
:1016C00000E060612D6B03230C491D4201D1A26132
:1016D00012E00A6B1A40012A01D1A0610CE00A6BEA
:1016E0001A40022A02D180231B0204E00A6B134035
:1016F000032B01D1024BA36170BDC0460010024014
:1017000000127A0000093D0009060020809FD500E4
:1017100012800000024B1A6A104318627047C046DC
:1017200000100240054B196A002803D080221202E3
:101730000A4301E0024A0A401A6270470010024060
:10174000FF7FFFFF044B5A69002902D01043586104
:1017500001E082435A61704700100240044B9A69CD
:10176000002902D01043986101E082439A617047DA
:1017700000100240044BDA69002902D01043D861FE
:1017800001E08243DA61704700100240044BDA68DE
:10179000002902D01043D86001E08243DA6070472C
:1017A00000100240044B1A69002902D0104318614E
:1017B00001E082431A6170470010024041090A4A61
:1017C00001D1136808E0012901D1136A04E002295C
:1017D00001D1536A00E0536B1F221040C340181C14
:1017E000012210407047C046001002400B688A6812
:1017F00010B51A43CB68C4681A430B691A434B6986
:101800001A43044B234013430A7952031343C36022
:1018100010BDC04603D2FFFF83680122002900D11A
:101820000222134383607047054B1968002803D0D8
:10183000802212040A4301E0024A0A401A607047FB
:1018400008270140FFFF7FFF054B1968002803D0E0
:10185000802252040A4301E0024A0A401A6070479B
:1018600008270140FFFFFFFE836A1943816242613E
:101870007047826880231B0613438360F0231B029A
:101880008268013BD20FD207002B01D0002AF7D18A
:101890008368002B01DB006C00E000207047836848
:1018A00004221343836070470123C268002901D0DA
:1018B000134301E09A43131CC3607047C3680222BC
:1018C0009343C360C3681943C1607047CB0103D51C
:1018D0008268044B134000E003680B40591E8B41A3
:1018E000D8B27047FFFFFFFEF8B5041C234B0088F9
:1018F000984206D8642101F0BDFDFA23DB00C91827
:101900002180A6780E20801B0C2101F0BDFD2588CA
:1019100096235B01ED18E778194BC0B2FF180C2332
:101920002D1A5843033E3018C0B299267043052142
:10193000023001F0A9FD6E26ADB2FF366E43AB0852
:1019400086196421281CF61801F050FDC82180B2C8
:10195000361A4900281C01F049FD2179E1226379FA
:1019600012014A433C2180B24B4336180548BF1947
:101970007843D318A2799B18C018F8BDCF07000090
:101980000C19DAFF80510100837893714378537109
:10199000037813718B78D3704B789370CB78138066
:1019A000704707B56A46FFF7EFFF6846FFF79CFFF1
:1019B0000EBD10B5031C0C1C0020191C00F02CFFE0
:1019C0000020211C00F096FF10BD0000014B1860A4
:1019D0007047C04600300040014B58607047C04619
:1019E00000300040014B98607047C0460030004016
:1019F000014A024B1A607047AAAA0000003000405A
:101A0000014A024B1A607047CCCC00000030004005
:101A100082B00190019A044B92B21A801A88002A6F
:101A2000FCD102B07047C046BA0B002008B51C4B71
:101A30001A88002A03D01A88013A92B21A80194BE8
:101A40001A88002A03D01A88013A92B21A80164ADC
:101A50001188002903D01188013989B211805A8870
:101A6000002A03D05A88013A92B25A8099880F4AC4
:101A7000914203D89A88013292B29A800C4B1B781B
:101A8000002B0BD00B4B1A88002A07D01A88013A7A
:101A900092B21A80002A01D1FFF792FA08BDC0461F
:101AA000BA0B0020F80A0020D20A00208713000099
:101AB000DE0A0020DC0A0020F0B5C020C002A1B080
:101AC0000121FFF73FFE0120FFF734FD0120FFF762
:101AD00075FE0028FAD00020FFF770FDA02100203D
:101AE0008903FFF745FD0120FFF752FD1920FFF79D
:101AF00065FE0028FAD00220FFF760FD0020FFF706
:101B000067FD0020FFF76EFD012001F0C1F9012003
:101B100001F0B4F9894B8A4AC0215A60894A090602
:101B2000106A0002000A0143116200229A608020BC
:101B300007221A6040050121FFF71CFE012001F079
:101B4000D3FB0120FFF704FD2120FFF737FE00281B
:101B5000FAD080277F00381CFFF7DCFD0120FFF75B
:101B6000E1FD7F230025059304A8FF230693049538
:101B700000F0BAFD744B902001246A46C005694606
:101B80000093147154719571D57100F025FD90206A
:101B90006A466023C00569460093157155719471BA
:101BA000D47100F019FD694B6A460093684803231D
:101BB00069461371D57100F00FFD0621281C01F054
:101BC0007DFB402302A802930C23437105718471AD
:101BD00001F06CF980200001211CFFF7BFFD80207F
:101BE0008000211CFFF7BAFD211C201CFFF7AAFD75
:101BF00080204004FFF702FD564B5749186801F05A
:101C0000F5FB07AE554B0138311C308054487360EA
:101C10003581758000F094FF60220AA950480A803F
:101C20004C808C6001F068F84D48211C00F0C4FF26
:101C30004B48211C00F0CAFF4A4B4B4815934B4BB5
:101C400015A91693042318938023DE001A932023EA
:101C50001D9380239B011E93179519951B971C9626
:101C60001F9500F0B9FB4048211C00F0D3FB404811
:101C70000221FFF723FE211C3D48FFF715FE4023FC
:101C80000FA93B48CB600C718E600D614D610F95C3
:101C9000FFF7ACFD3648391C0522FFF7E5FD802132
:101CA000334889000522FFF7DFFD8021C9020522A4
:101CB0002F48FFF7D9FD201CFFF7C6FD8021490200
:101CC00005222B48FFF7D0FD201CFFF7ADFD28486B
:101CD000FFF7CFFD2648211CFFF79EFD244825492C
:101CE000FFF7F4FD0028F9D02148FFF7D8FD22487E
:101CF000FFF76CFE0220FFF76FFE2048FFF772FE31
:101D0000FFF776FEFFF77CFE802080020121FFF7BF
:101D100019FD80235B006A46009390200223137113
:101D2000032400236946C00554719371D37100F0F8
:101D300053FC201CFFF73CFC21B0F0BD10E000E09C
:101D40007FBB000000ED00E0081800000302000067
:101D5000000400482C06002040420F00E70300006A
:101D6000002C01404024014008000240B20B00203A
:101D7000002401400100000155550000C409000085
:101D8000F0B5324D324E93B005AC301C291CFFF734
:101D900010FE0023201C2F492370FEF701FA307833
:101DA0006946FEF7D9F9201C6946FEF7F9F92A4F72
:101DB000201C391CFEF7F4F970786946FEF7CCF95F
:101DC000201C6946FEF7ECF9201C391CFEF7E8F9E7
:101DD000B0786946FEF7C0F9201C6946FEF7E0F9C5
:101DE000201C1E49FEF7DCF9A8786946FEF7B4F915
:101DF000201C6946FEF7D4F9194E201C311CFEF751
:101E0000CFF968786946FEF7A7F9201C6946FEF706
:101E1000C7F9201C311CFEF7C3F9E8786946FEF7C4
:101E20009BF9201C6946FEF7BBF9201C0D49FEF703
:101E3000B7F928786946FEF78FF9201C6946FEF746
:101E4000AFF9201C00F0DCFF13B0F0BD9C0B0020AC
:101E5000980B0020F73800081139000806390008EF
:101E60000A3900080C390008F7B5FFF725FE00F025
:101E700095FF00F0DDFAFFF795FA01F08FF8FEF715
:101E8000CFF9FFF761F9FFF781FAAC4800F0B8FF2E
:101E9000FFF776FFFFF7ACFDA94BAA4C1A68A168C3
:101EA000914200D1A5E01B687D20A360A64B9A88D3
:101EB0005043E268400A8018E0605B889BB201935F
:101EC000237C0133DBB2072B01D823740EE00023FF
:101ED0002374637CC008E060002B05D0142800D276
:101EE000142080B2FFF735F80023E360974D984E39
:101EF000281C311CFFF75DFD2B78964E002B12D16C
:101F00006B78002B0FD1AB78002B0CD17079400689
:101F1000400FFEF74FFA3368C822D802800E012125
:101F20009200FEF76BFAB37AD9074AD5737A2A780A
:101F3000DB089A4211D16F78002F0ED1AB78042BB9
:101F40000BD8637C002B08D0834800F059FF6774DE
:101F5000FFF71CFA381C00F0B1FA33892A785B05C8
:101F6000DB0E9A422DD16B78002B2AD1AB78042B53
:101F700027D8667C002E24D1784800F041FF9620B7
:101F80000123852180006374FFF748FA642000F084
:101F900095FAC820FFF73CFD6C486D49FFF709FD35
:101FA0006F4D6B492A1C6948FFF7EEFC281CFFF7B0
:101FB0009BFC2021FFF73AFAFEF7BAFF694B6380DA
:101FC000A680637C002B0FD0019A1B2093085843F6
:101FD00080B2654B800040425221C018FF3101F0B1
:101FE00053FA80B200F06AFA0A2000F01DFFFFF7F2
:101FF000C7FE5E4B1F78012F00D0D0E001F012F930
:102000005B4D030A28706B70A27C2B78000CA870C3
:102010009A4200D1C3E04F4E2B78B088A374C0051C
:10202000400FFEF7C7F93079391C80066422800E14
:10203000FEF7E4F90A2000F0F7FE2A2000F0F4FE93
:10204000AB78DBB21E2B73D00CD8122B55D004D832
:102050000E2B63D00F2B5CD092E0132B12D0142BDD
:1020600052D08DE02F2B54D004D81F2B5BD02E2BB9
:1020700054D085E0332B05D0342B45D0322B00D003
:102080007EE03AE0617C019100290CD0394B0025BB
:1020900039481D70657400F0B3FEFFF777F9281C0E
:1020A00000F00CFA7BE001223448627400F0A8FED4
:1020B000962085218000FFF7B1F96E2000F0FEF92F
:1020C000C820FFF7A5FC214F214E381C311CFFF71B
:1020D00070FC234D311C2A1C381CFFF755FC281CB2
:1020E000FFF702FC2021FFF7A1F9FEF721FF1D4BAE
:1020F00001206380019BA38003E0637C002B4ED012
:102100000720FFF7A9F84AE0637C0620002B46D0A1
:10211000F7E7637C0320002B41D0F2E7637C0220C9
:10212000002B3CD0EDE7637C0420002B37D0E8E7A0
:10213000637C0520002B32D0E3E7C046133900084A
:1021400000280040F80A0020B20B0020980B002065
:102150009C0B00208C0B0020253900083439000826
:10216000A80B0020DC050000B2310100240B002088
:10217000BC0B0020DE0A0020453900085339000856
:10218000A9783248C9B200F057FEB088C005400FA8
:10219000FEF710F9282001211422FEF72FF9FEF78F
:1021A0004FF96588ADB2002D2DD1637C002B2AD06C
:1021B0002748657400F024FEFFF7E8F8281C00F0BB
:1021C0007DF9244B02209B88DB055B0F00D0181C97
:1021D000FEF7F0F8032196222020FEF70FF90021E8
:1021E00096222020FEF70AF9032196222020FEF7EE
:1021F00005F9002196222020FEF700F92020032176
:102200009622FEF7FBF8E37C012B00D042E6124D4C
:102210001248297800F010FE2B78192B12D1104F9C
:10222000104E381C311CFFF7C4FB311C0E4A381C01
:10223000FFF7AAFB0C48FFF757FB2021FFF7F6F842
:10224000FEF776FE00232B70E37423E66039000866
:10225000753900088C0B0020B00B0020873900086E
:10226000980B00209C0B0020A80B0020234A244B35
:1022700030B5538093889BB293820023938011885A
:10228000131C002938D116211180D17C002933D1AB
:102290009021C905088A20210840947D1949002809
:1022A0001ED1042C03D9D074D0759075087001200C
:1022B000DA7D0C78051C95402C43E4B20C70011CAF
:1022C000072C03D1022A01D1D87402E0042A04D1D8
:1022D000D9740022DA759A750EE00132DA750BE0D6
:1022E000D37D087801259D40A84301330870D3753C
:1022F000042C01D80134947530BDC046F80A002082
:10230000DC050000B00B00200C488546002103E0EE
:102310000B4B5B58435004310A480B4B42189A420E
:10232000F6D30A4A02E0002313600432084B9A42B3
:10233000F9D300F01FF9FFF797FDFEE7001000202A
:10234000A039000800000020700A0020700A002058
:10235000E80B0020FEE700000268184B1340036002
:102360000023036043608360C360154B984203D130
:10237000144B0F215A681DE0134B984203D1114BA7
:10238000F0215A6816E0114B984204D10D4BF0220F
:10239000596812010EE00E4B984204D1094BF0220D
:1023A0005968120206E00B4B984205D1054BF0220A
:1023B000596812030A435A607047C046FEFF000086
:1023C00008000240000002401C00024030000240B1
:1023D000440002405800024002680D4B10B51A40FC
:1023E0008C680B6A23430C6923434C6923438C6933
:1023F0002343CC6923434C6A23438C6A234313430E
:102400000360CB680C6843604B688460C36010BD98
:102410000F80FFFF002903D003680122134302E06D
:102420000268024B134003607047C046FEFF000085
:1024300070B580201F4D8AB080020121FFF78EF910
:10244000281C0821022200F002F980235B006A4662
:10245000009302230024137169460323281C53713F
:10246000154D9471D47100F0B7F802A904230B80C4
:10247000FA235B00281C4B604C800C818C72012677
:1024800000F05EFB05A96022281C0A808C604E804B
:102490008C808C81CC810C824C8200F0A5FB281CA6
:1024A000311C00F093FB281C311C00F085FB0AB0A6
:1024B00070BDC0460004004800440140FA22031CDD
:1024C0005200904200D9131C014A9BB253637047DB
:1024D00000440140002382B000930193224B8022EC
:1024E000196852020A431A60196880229202114048
:1024F00001910099013100910199002904D10098BE
:10250000A021C9018842EFD119680A4000D00122F8
:102510000192019A012A25D1144A112111605A68A9
:102520005A605A685A605968114A0A405A60596894
:10253000882252030A435A601968802252040A43CF
:102540001A601968084A8801FBD551680320814345
:102550005160516802200143516059680C220A40C1
:10256000082AFAD102B07047001002400020024051
:10257000FFFFC0FF08B5124B012219681143196013
:10258000586810490140596018680F4901401960A6
:1025900018680E490140196058680D49014059609A
:1025A000D96A0F208143D962186B0A490140196327
:1025B000596B9143002259639A60FFF78BFF08BD66
:1025C000001002400CB8FFF8FFFFF6FEFFFFFBFF14
:1025D000FFFFC0FFACFEFFFFF7B50B6801930023C0
:1025E0000124019A9C402240A2422CD10D796C1EFC
:1025F000012C14D887685C000326A640B743876087
:102600004E798768A640341C3C4384608488944398
:1026100084808A7984889A40224392B282805A00C8
:10262000032407689440E443274007600768954007
:102630003D430560C5682C40C460CD79C4689540B1
:102640002A1C2243C2600133102BC9D1F7BD0723D6
:102650000B40C9088900401810B5016A9B000F247F
:102660009C40A1430162016A9A40131C0B43036220
:1026700010BD0023092804D901330A38DBB2C0B2E7
:10268000F8E71B011843C0B2704703090A225343FD
:102690000F2210401818C0B270470000002382B00B
:1026A00001930C4B0120DA68510611D44242DA60E2
:1026B000D96840220A400199013101910198802195
:1026C000C901884201D0002AF2D0D8684006C00F64
:1026D00002B0704700280040024B8021DA688A432C
:1026E000DA6070470028004038B5104CCA23636296
:1026F00053236362051CFFF7D1FF0023984211D0DA
:10270000A36840229343A360A3682A681343A3608D
:10271000AB6823616B6822691B0413432361FFF7D5
:10272000DBFF0123FF22181C626238BD0028004035
:10273000002382B00193104B01209A68910619D4AE
:10274000CA225A6253225A62DA68A0218A43DA60A6
:10275000D96820220A400199013101910198802114
:102760000902884201D0002AF2D0D868FF228006F0
:10277000C00F5A6202B0704700280040F7B54023EE
:10278000021C0C1C224D08784F788E78002A04D148
:10279000AA68134028D1CB7026E0AA68134000D164
:1027A000CB7000043F02E37807433E431B041E4303
:1027B000CA236B6253236B62FFF770FF031C002078
:1027C000134C83420DD0134F3E402660FFF784FF29
:1027D000A36801209A0604D4FFF7AAFF431E98417C
:1027E000C0B2FF236B62FEBDFFF743FF0190381CB0
:1027F000FFF73FFF071C301CFFF73BFFE678019A0D
:102800003604064313041E433F023E43D0E7C0464E
:10281000002800407F7F7F00104B70B51B68021CB2
:102820005E0498027F251D40800E760E0C1C0870F9
:102830004E708D708021C9030B401B0CE370002A81
:102840000AD1FFF722FF2070301CFFF71EFF6070D7
:10285000281CFFF71AFFA07070BDC046002800407A
:10286000F8B50C1C4B78CD788F780E78002831D1D4
:102870001022134202D093430A334B70281CFFF7F7
:10288000F8FE051C6078FFF7F4FE041C381CFFF707
:10289000F0FE760306432B04351C1D43240225431A
:1028A000124CCA23636253236362FFF7F7FE0023CF
:1028B000984216D00E4B1D406560FFF70DFFA268D1
:1028C000012391060DD4FFF733FF031C581E8341EB
:1028D000DBB206E02D041B021D433D437603354366
:1028E000DEE7FF22181C6262F8BDC04600280040E7
:1028F0003FFFFF000F4B70B55B683F25DE041D40B6
:10290000021C18021B04000EF60E5B0F0C1CC87094
:102910004E708D700B70002A0AD1FFF7B6FEE07082
:10292000301CFFF7B2FE6070281CFFF7AEFEA070EF
:1029300070BDC046002800400E4B70B5CA245C62D2
:1029400053245C62DC68E50306D50B4CDD68EE03BE
:1029500002D5013C002CF9D1DD680024EE0304D43B
:10296000044C11430843E0630124FF22201C5A62F7
:1029700070BDC046002800400110000082B0002356
:102980000193054B80000193019BC0180190019BAE
:10299000196002B07047C0465028004082B0002342
:1029A0000193054B80000193019BC0180190019B8E
:1029B000186802B07047C0465028004003680122E2
:1029C0009343F0B5036042681F4B0D1C89681340A8
:1029D0000B43436002681D4B69681A40EB6889B07D
:1029E0000B432969041C0B43134303608268184B93
:1029F00013406A691343836001A8FEF717FE154B65
:102A00009C4201D1079E00E0039E23682F681904B1
:102A100000D57600391C301C00F0E8FC391C051C80
:102A2000301C00F027FD7F080023B9425B41ED1800
:102A300023681A0404D5084A2B075B0F15401D4371
:102A4000ADB2A58109B0F0BDFFCFFFFFF3E9FFFFF5
:102A5000FFFCFFFF00380140F0FF00000123026887
:102A6000002901D0134301E09A43131C036070470F
:102A700008B52C4B984207D1802000010121FEF7B8
:102A800085FE8020000149E08023DB05984205D1C6
:102A90000120011CFEF786FE01201BE0224B98421C
:102AA00005D102200121FEF77DFE022012E01F4B1E
:102AB000984205D110200121FEF774FE102009E094
:102AC0001B4B98420AD1802040000121FEF76AFE8C
:102AD000802040000021FEF765FE22E0154B984261
:102AE00007D1802040020121FEF750FE80204002E5
:102AF00014E0114B984207D1802080020121FEF79B
:102B000045FE8020800209E00C4B984209D18020CC
:102B1000C0020121FEF73AFE8020C0020021FEF72C
:102B200035FE08BD002C01400004004000100040AC
:102B300000200040004001400044014000480140A6
:102B40000388164A30B59BB2904206D08024E40533
:102B5000A04202D0124CA04203D17024A3434C885F
:102B60002343104CA04203D00F4D0C892B4023432C
:102B700003804B68C3620B880385904208D00B4BDF
:102B8000984205D00A4B984202D00A4B984201D194
:102B90008B7A03860123838230BDC046002C01401E
:102BA0000004004000100040FFFCFFFF0040014017
:102BB000004401400048014001230288002901D05F
:102BC000134301E09A43131C038070470630002929
:102BD00004D0C28F80231B02134302E0C38F5B0427
:102BE0005B0CC38770470000038C0122934303846E
:102BF00070B5058C8288048B73239C430B884E88A8
:102C00001C4302239D438B8992B233432B43104DC7
:102C1000A84208D00F4DA84205D00F4DA84202D0BF
:102C20000E4DA8420DD10825AB43CD894E8A2B43CA
:102C30000425AB438D882B43094D2A400D8A35432B
:102C40002A4382808A6804834263038470BDC0463D
:102C5000002C014000400140004401400048014078
:102C6000FFFCFFFF038C102293430384028C70B59A
:102C700083881C4C058B9BB225400C88240225437D
:102C80002024A2438C89ADB2240122434C8892B205
:102C900024012243144C92B2A04202D0134EB042FF
:102CA00019D1134E33400E8AB60033439BB2A04273
:102CB00011D18024A243CC892401224392B2402422
:102CC000A2438C88240122430A4C92B223404C8AAE
:102CD000A40023439BB283808B68058383630284B3
:102CE00070BDC046FF8CFFFF002C0140004001403A
:102CF000FFFBFFFFFFF7FFFF028C134B30B51340C4
:102D00000384058C114A8388848B9BB214400A8803
:102D1000120214430E4AA4B22A408D892D032A437D
:102D20004D8892B22D032A430A4D92B2A84205D192
:102D3000094D2B400D8AAD012B439BB283808B68DC
:102D400084830364028430BDFFEFFFFFFF8CFFFF2D
:102D5000FFDFFFFF002C0140FFBFFFFF8389002A38
:102D600002D01943818101E08B4383817047028A3D
:102D7000838900209BB20A4203D01940481E81413A
:102D8000C8B27047C94389B20182704783887022F4
:102D900093438380838819438180704730B58020B6
:102DA00089B0C0010121FEF7D9FC134D40236A46CA
:102DB0000093022300241371281C032369465371D6
:102DC0009471FFF709FC221C281C0621FFF73FFC29
:102DD0000394049405940794E123084C5B02029346
:102DE000201C082302A90693FFF7E8FD201C0121FF
:102DF000FFF734FE09B030BD000400480038014040
:102E000010B5084AD3691906FBD50A231385037840
:102E1000002B06D0D1690C06FCD5024901300B8588
:102E2000F5E710BD00380140024BDA691106FBD509
:102E30001885704700380140B0B588B000AF0D1C50
:102E4000041CFDF76FF91B30C008C0006B461B1A4D
:102E50009D4600221A706846211CFDF7A1F9281C26
:102E6000391DFDF779F96846391DFDF799F968466E
:102E7000FFF7C6FFBD4608B0B0BD0000034B0121FF
:102E80001A688A43104318607047C0460020024009
:102E9000054B10221968002801D00A4301E0914334
:102EA0000A1C1A607047C0460020024010B58379A2
:102EB0000268002B23D0164BD1431C680C401C60C9
:102EC0005C68214059600179C9180C6822430A6086
:102ED00002689C68D1430C409C60DC682140D9604A
:102EE0004179102906D1996811439960D9680A433C
:102EF000DA600BE006480B1819680A4305E004493C
:102F000003795B18196891430A1C1A6010BDC0460A
:102F100000040140034B5B691840431E9841C0B256
:102F20007047C04600040140014B58617047C046DD
:102F30000004014000B589B001A8FEF777FB054BFE
:102F400003985B689A0400D54000032100F04EFA14
:102F500009B000BD001002400C4B10B51A680C4CB3
:102F600080210A431A60201CFFF782FD09490A4BA1
:102F7000201C4B6002230B8000230B814B80FFF74A
:102F8000DFFD201C0121FFF7FDFE10BD0004014004
:102F900000480140C00B0020FFFF0000F0B587B0E3
:102FA000032304A98026002538484B710D71CD718B
:102FB0000496FFF711FBF0020121FEF7CFFB012081
:102FC000011CFEF7CBFBFFF7B5FFFA21890000F0EB
:102FD0000DFA2F4CFA21206023682E4889005843AF
:102FE00000F004FA2368A080071CAA208000FA21C0
:102FF0005843890000F0FAF92368E0802648FA2156
:103000005843890000F0F2F9236820812348FA210F
:103010005843890000F0EAF9236860812048FA21CA
:103020005843890000F0E2F92368A0811D48FA2185
:103030008900584300F0DAF9BFB203235F43E0810F
:10304000BF10301C2782FFF76FFF02A81023057105
:10305000012501AC437185710296FFF727FF072117
:10306000281C00F02BF90723201C23706570A57025
:1030700000F04AF916232370201C02236370A57008
:1030800000F042F9FFF768FF07B0F0BD0004004808
:10309000100B0020F206000062020000DC050000B8
:1030A0000E060000C409000038B5174C0121201C91
:1030B000FFF75DFE002825D0144B1548997C4A1C6B
:1030C000D2B29A74058A80200540124849000D52F8
:1030D000D97C002903D19988E1620121D9740D2A94
:1030E0000CD1002401210848221C19759C74DC7441
:1030F000FFF734FE0448211CFFF75EFD0248012162
:10310000FFF740FE38BDC04600480140100B0020CC
:1031100000040048CC0B0020F8B54020FFF7FAFE71
:10312000061E09D04020FFF7FFFE394B1B88002BFD
:103130006CD1FFF79BF869E08020FFF7EBFE0028D9
:1031400064D0344C637D251C0133DBB26375617D33
:10315000C9B2012904D130484662FFF72DFD52E083
:10316000637D022B36D12C4F311C381CFFF724FD18
:103170007B6A22899BB2E3827E62E38A274E9A426F
:1031800006D8E38A62899A4202D3012333703AE077
:10319000EB8AAA899A4218D8EB8AEA899A4214D310
:1031A0001F4B80211A681C488A431A600121FFF7CF
:1031B00003FD012118480A1CFFF7D0FD01233370DD
:1031C0002B8AFB6200232B7602E0002333707B62A4
:1031D0006B7518E0637D032B15D1114B0E4D1A68EA
:1031E00080218A431A60281C0121FFF7E5FC012198
:1031F0000A1C281CFFF7B2FD084A01231370228A1B
:10320000EA62237666758020FFF78EFEF8BDC04621
:10321000F80A0020100B0020004801403006002072
:103220000004014007B500236846224A037043703A
:103230008370118880230B4002D00123037000E0CB
:1032400003700123684641784900C9B241705900B2
:10325000515A080605D56846417801200143684661
:1032600041700133062BEDD1684681784900C9B21F
:1032700081705900515A080605D5684681780120A9
:1032800001436846817001330C2BEDD10A4B1A7E45
:10329000002A05D169468A7840210A43684682702F
:1032A00000221A75FFF758FE694688780B880004DB
:1032B00018430EBDCC0B0020100B002003230B4045
:1032C000084A89088900891810B58A689B000F246C
:1032D0009C40A2438A608A689840031C13438B6019
:1032E00010BDC04600000140054B1968002803D0FE
:1032F000802252000A4301E0024A0A401A607047E5
:1033000000700040FFFEFFFF827870B50378002A4E
:103310001DD09908124A0324890089182340C0222D
:10332000A3409200FF248D58261C9E40B54346784A
:10333000B60134409C402B1C23438B5002781F2342
:103340001A40012393401A1C054B1A6006E01F2205
:10335000134001229A40131C024AD36770BDC04635
:1033600000E100E004E100E0064B10B51A683E24DD
:103370008440A2434C68096821438140081C1043E3
:10338000186010BD00740040084B0122002905D0D0
:1033900019688240101C0843186005E019688240D3
:1033A000101C0A1C82431A607047C046007400401B
:1033B0008022084B5201002905D019688240101C58
:1033C0000843186005E019688240101C0A1C8243FB
:1033D0001A6070470074004002B471464908490001
:1033E000095C49008E4402BC7047C046002934D0B5
:1033F0000123002210B488422CD301242407A142C7
:1034000004D2814202D209011B01F8E7E400A14283
:1034100004D2814202D249005B00F8E7884201D31E
:10342000401A1A434C08A04202D3001B5C082243F6
:103430008C08A04202D3001B9C082243CC08A04267
:1034400002D3001BDC082243002803D01B0901D053
:103450000909E3E7101C10BC7047002801D00020C8
:10346000C04307B4024802A14018029003BDC04601
:10347000D90000000029F0D003B5FFF7B9FF0EBC5A
:103480004243891A1847C046002941D010B4041C91
:103490004C40A44601230022002900D549420028BF
:1034A00000D5404288422CD301242407A14204D2F3
:1034B000814202D209011B01F8E7E400A14204D2D3
:1034C000814202D249005B00F8E7884201D3401AEA
:1034D0001A434C08A04202D3001B5C0822438C080C
:1034E000A04202D3001B9C082243CC08A04202D376
:1034F000001BDC082243002803D01B0901D0090966
:10350000E3E7101C6446002C00D5404210BC704715
:10351000002806D003DB0020C043400801E08020E3
:10352000000607B4024802A14018029003BDC0463D
:10353000190000000029EBD003B5FFF7A7FF0EBC70
:103540004243891A1847C0467047C046F0B5830702
:1035500046D0541E002A42D0CEB2031C032503E0FD
:10356000621E002C3BD0141C01335A1E16702B42D5
:10357000F6D1032C2BD9FF250D402A0215432A042E
:1035800015430F2C15D9271C103F3F091E1C3A016B
:103590001036B6181A1C156055609560D56010324B
:1035A000B242F8D101373F010F22DB191440032C3E
:1035B0000DD9271FBF08BA001E1DB6181A1C20C23D
:1035C000B242FCD10137BF000322DB191440002CAA
:1035D00005D01C19C9B219700133A342FBD1F0BD4B
:1035E000141C031CC5E7C04608B5034B002B02D0D2
:1035F000024800F005F808BD000000001136000880
:1036000008B5011C00220020002300F019F808BDB5
:1036100038B5094B094DED1AAD1009D0013DAC008C
:10362000E41800E0013D23689847043C002DF9D1DF
:1036300000F06CF838BDC046680A00206C0A002013
:10364000F0B54F464646C0B498462B4BA4251B68A0
:103650006D005C5983B0061C0F1C91460193002C31
:1036600044D065681F2D1ADD244B002B02D10120A8
:1036700040421CE0C820400000E000BF041EF6D01D
:1036800000254560A42301985B00C0580199206083
:10369000CC50C4235B00E550C6235B00E550002EF0
:1036A0000AD16B1C0235AD00636000202F5103B0BE
:1036B0000CBC90469946F0BDAB00E3188822484602
:1036C0009850C4204000221810680121A9400843E6
:1036D00010608422520040469850022EE1D1C6224A
:1036E0005200A318186801431960DAE71C1C4D3416
:1036F000FF345C51B5E7C0469C390008000000006B
:10370000F8B5C046F8BC08BC9E467047F8B5C04640
:10371000F8BC08BC9E467047FF078F090F0B710C61
:10372000AA0DA60E630FD80FFF0FD80F630FA60EBA
:10373000A70D710C0F0B8F09FF076F06EF048D03A8
:10374000570258019B002600000026009B005801EC
:1037500057028D03EF046F06FF0FFF0FFF0FFF0FE0
:10376000FF0FFF0FFF0FFF0FFF0FFF0FFF0FFF0FE9
:10377000FF0FFF0FFF0FFF0F000000000000000011
:103780000000000000000000000000000000000039
:1037900000000000000000000000840008018C010F
:1037A0001002940218039C032004A4042805AC050D
:1037B0003006B4063807BC074008C5084909CD09DA
:1037C000510AD50A590BDD0B610CE50C690DED0DA5
:1037D000710EF50E790FFF0F00000801100218039B
:1037E000200428053006380740084909510A590BBA
:1037F000610C690D710E790F7D0F750E6D0D650CE5
:103800005D0B550A4D0945083D0735062C05240476
:103810001C0314020C01040083008B0094009C0024
:10382000A500AF00B900C400CF00DC00E900F7003C
:1038300006011501260137014A015D017201880167
:103840009F01B801D201EE010B022A024B026E0267
:103850009302BA02E40210033E037003A403DC03E4
:10386000160455049604DC0426057505C8052006D3
:103870007D06B8064907B7072D08A9082D09B9091B
:103880004D0AEA0A900B400C040D700D910E6F0F5B
:1038900043616C50203D0043616C4D203D003E0073
:1038A000780258023B0221020A02F401E001CE0133
:1038B000BC01AC019E0190013E2053656E64206303
:1038C0006F6D6D616E64203D20003E2053656E6417
:1038D000206E756D313628696E7429203D20003EBA
:1038E0002053656E64206E756D333228646F756287
:1038F0006C6529203D20000053797374656D206448
:103900006174653A2000202020002D003B20446196
:10391000793A00242053797374656D205374617271
:103920007465642100202420536C656570205469FF
:103930006D65210020242057616B652D7570207402
:10394000696D6521002D2D2D20524F544F52204F6F
:103950004646002B2B2B20524F544F52204F4E00E7
:103960002D3E4641494C2052433520636F6D6D61B9
:103970006E643A20002D2D2D20524F544F52204876
:10398000414C54454421003C20526F746F722073A7
:10399000656E643A200000004300000038060020F5
:1039A00001000000030080002400002040000020EF
:1039B000E00A0020E00A002000243E41436C6B0036
:1039C000000000004000002008000020E00A002065
:1039D000E00A002020243E44436C6B0000000000FD
:1039E0000800002024000020E00A0020E00A002057
:1039F00040243E4441436C6B00000000E00A00207C
:103A0000E00A0020E00A0020E00A002060243E4D89
:103A10006574720000000000E00A0020E00A002047
:103A2000E00A0020EC05002080233E4D454E550065
:103A300000000000E00A0020E00A0020BC02002094
:103A4000E00A0020FB3A202300000000E00A0020EA
:103A5000E00A0020D8020020E00A0020FA3A2023E1
:103A600000000000E00A0020E00A0020F40200202C
:103A7000E00A0020F93A202300000000E00A0020BC
:103A8000E00A002014030020E00A0020ED3A202381
:103A900000000000E00A0020E00A002034030020BB
:103AA000E00A0020EC3A202300000000E00A002099
:103AB000E00A002050030020E00A0020EB3A202317
:103AC00000000000E00A0020E00A00206C03002053
:103AD000E00A0020EA3A202300000000E00A00206B
:103AE000E00A002088030020E00A0020E93A2023B1
:103AF00000000000E00A0020E00A0020A4030020EB
:103B0000E00A0020D93A202300000000E00A00204B
:103B1000E00A0020C4030020E00A0020CC3A202361
:103B200000000000E00A0020E00A0020E00300207E
:103B3000E00A0020CB3A202300000000E00A002029
:103B4000E00A0020FC030020E00A0020CA3A2023FB
:103B500000000000E00A0020E00A00201804002015
:103B6000E00A0020C93A202300000000E00A0020FB
:103B7000E00A002034040020E00A0020BB3A2023A1
:103B800000000000E00A0020E00A002050040020AD
:103B9000E00A0020BA3A202300000000E00A0020DA
:103BA000E00A00206C040020E00A0020B93A20233B
:103BB00000000000E00A0020E00A00208804002045
:103BC000E00A0020AB3A202300000000E00A0020B9
:103BD000E00A0020A4040020E00A0020AA3A2023E2
:103BE00000000000E00A0020E00A0020BC040020E1
:103BF000E00A0020A93A202300000000E00A00208B
:103C0000E00A0020D8040020E00A00209C3A20238B
:103C100000000000E00A0020E00A0020F404002078
:103C2000E00A00209B3A202300000000E00A002068
:103C3000E00A00200C050020E00A00209A3A202328
:103C400000000000E00A0020E00A00202405002017
:103C5000E00A0020993A202300000000E00A00203A
:103C6000D80200203C05002094000020F34F666637
:103C700054696D6500000000BC020020F4020020C1
:103C80003C050020AC000020F24F6E54696D6500C9
:103C900000000000D8020020E00A00203C050020BF
:103CA000C4000020F14F6E3A312F4F66663A300063
:103CB00000000000E00A0020340300205C05002022
:103CC000DC000020E550656E64756C756D000000C9
:103CD0000000000014030020500300205C050020B9
:103CE000F4000020E444617465000000000000005E
:103CF000340300206C0300205C0500200C01002030
:103D0000E354696D650000000000000050030020CE
:103D1000880300205C05002024010020E24D617230
:103D20006B730000000000006C030020E00A00201C
:103D30005C0500203C010020E14172726F770000B9
:103D400000000000E00A0020E00A002078050020C2
:103D500054010020D13474685374696B650000000D
:103D600000000000E00A0020E00300209805002089
:103D70006C010020C448725374726B000000000094
:103D8000C4030020FC0300209805002084010020CB
:103D9000C34D65747232000000000000E003002093
:103DA00018040020980500209C010020C24D657475
:103DB0007231000000000000FC030020E00A002037
:103DC00098050020B4010020C1436C69636B0000BA
:103DD00000000000E00A002050040020B40500208C
:103DE000CC010020B348725374726B0000000000D5
:103DF000340400206C040020B4050020E4010020FD
:103E0000B24D6574720000000000000050040020F4
:103E1000E00A0020B4050020FC010020B1436C69D9
:103E2000636B000000000000E00A0020A4040020F2
:103E3000D005002014020020A35965617200000023
:103E40000000000088040020BC040020D0050020F1
:103E50002C020020A24D6F6E00000000A404002080
:103E6000E00A0020D005002044020020A144617433
:103E70006500000000000000E00A0020F4040020BB
:103E8000EC0500205C02002094436F727200000079
:103E900000000000D80400200C050020EC050020E4
:103EA000740200209353656300000000F4040020B6
:103EB00024050020EC0500208C020020924D696E44
:103EC000000000000C050020E00A0020EC050020A6
:103ED000A40200209148720000000000E00A0020C7
:103EE0005C05002078000020F4020020F041757489
:103EF0006F204F4E2F4F4646000000003C0500202B
:103F0000780500207800002088030020E0436F6CD3
:103F10006F727300000000005C050020980500200F
:103F200078000020A4030020D04D6574726F6E6F7E
:103F30006D6500000000000078050020B405002039
:103F40007800002018040020C0546F6E6500000047
:103F50000000000098050020D00500207800002017
:103F60006C040020B0566F6C756D65000000000099
:103F7000B4050020EC05002078000020BC040020DF
:103F8000A04461746500000000000000D00500201E
:103F9000E00A0020780000202405002090436C6F88
:103FA000636B0000000000000E000000000102032F
:103FB00004010203040607080900000000000000D5
:103FC000000000000102030406070809006CDC027F
:103FD0000100000000000000000000002409002093
:103FE0008C090020F40900200000000000000000FF
:103FF00000000000000000000000000000000000C1
:1040000000000000000000000000000098390008D7
:1040100000000000000000000000000000000000A0
:104020000000000000000000000000000000000090
:104030000000000000000000000000000000000080
:104040000000000000000000000000000000000070
:104050000000000000000000000000000000000060
:104060000000000000000000000000000000000050
:104070000000000000000000000000000000000040
:1040800001000000000000000E33CDAB34126DE6DD
:10409000ECDE05000B000000000000000000000046
:1040A0000000000000000000000000000000000010
:1040B0000000000000000000000000000000000000
:1040C00000000000000000000000000000000000F0
:1040D00000000000000000000000000000000000E0
:10440000E9350008ED000008C500000800000000C4
:0400000508000000EF
:00000001FF
